{
  "_format": "hh-sol-artifact-1",
  "contractName": "TenderApp",
  "sourceName": "contracts/TenderApp.sol",
  "abi": [
    {
      "inputs": [],
      "stateMutability": "nonpayable",
      "type": "constructor"
    },
    {
      "anonymous": false,
      "inputs": [],
      "name": "Announce",
      "type": "event"
    },
    {
      "inputs": [
        {
          "internalType": "uint256",
          "name": "tenderIndex",
          "type": "uint256"
        },
        {
          "internalType": "string",
          "name": "form",
          "type": "string"
        },
        {
          "internalType": "string",
          "name": "title",
          "type": "string"
        },
        {
          "internalType": "string",
          "name": "description",
          "type": "string"
        }
      ],
      "name": "applyToTender",
      "outputs": [],
      "stateMutability": "nonpayable",
      "type": "function"
    },
    {
      "inputs": [
        {
          "internalType": "uint256",
          "name": "tenderId",
          "type": "uint256"
        },
        {
          "internalType": "uint256[53]",
          "name": "answers",
          "type": "uint256[53]"
        }
      ],
      "name": "completeApplication",
      "outputs": [],
      "stateMutability": "nonpayable",
      "type": "function"
    },
    {
      "inputs": [
        {
          "internalType": "string",
          "name": "from",
          "type": "string"
        },
        {
          "internalType": "string",
          "name": "title",
          "type": "string"
        },
        {
          "internalType": "string",
          "name": "description",
          "type": "string"
        },
        {
          "internalType": "uint256",
          "name": "bidBond",
          "type": "uint256"
        },
        {
          "internalType": "uint256",
          "name": "prequalificationDeadline",
          "type": "uint256"
        },
        {
          "internalType": "uint256",
          "name": "bidSubmissionDeadline",
          "type": "uint256"
        },
        {
          "internalType": "uint256",
          "name": "contractSignDeadline",
          "type": "uint256"
        },
        {
          "internalType": "uint256",
          "name": "estimatedProjectCost",
          "type": "uint256"
        },
        {
          "internalType": "string",
          "name": "keyword",
          "type": "string"
        }
      ],
      "name": "createTender",
      "outputs": [],
      "stateMutability": "nonpayable",
      "type": "function"
    },
    {
      "inputs": [],
      "name": "getApplicantsByAuther",
      "outputs": [
        {
          "components": [
            {
              "internalType": "uint256",
              "name": "tenderId",
              "type": "uint256"
            },
            {
              "internalType": "address",
              "name": "applicant",
              "type": "address"
            },
            {
              "internalType": "string",
              "name": "form",
              "type": "string"
            },
            {
              "internalType": "string",
              "name": "title",
              "type": "string"
            },
            {
              "internalType": "string",
              "name": "description",
              "type": "string"
            },
            {
              "internalType": "bool",
              "name": "isCompleted",
              "type": "bool"
            },
            {
              "internalType": "uint256",
              "name": "totalScore",
              "type": "uint256"
            }
          ],
          "internalType": "struct TenderApp.Applicants[]",
          "name": "",
          "type": "tuple[]"
        }
      ],
      "stateMutability": "view",
      "type": "function"
    },
    {
      "inputs": [
        {
          "internalType": "uint256",
          "name": "tenderId",
          "type": "uint256"
        }
      ],
      "name": "getApplicantsByTender",
      "outputs": [
        {
          "components": [
            {
              "internalType": "uint256",
              "name": "tenderId",
              "type": "uint256"
            },
            {
              "internalType": "address",
              "name": "applicant",
              "type": "address"
            },
            {
              "internalType": "string",
              "name": "form",
              "type": "string"
            },
            {
              "internalType": "string",
              "name": "title",
              "type": "string"
            },
            {
              "internalType": "string",
              "name": "description",
              "type": "string"
            },
            {
              "internalType": "bool",
              "name": "isCompleted",
              "type": "bool"
            },
            {
              "internalType": "uint256",
              "name": "totalScore",
              "type": "uint256"
            }
          ],
          "internalType": "struct TenderApp.Applicants[]",
          "name": "",
          "type": "tuple[]"
        }
      ],
      "stateMutability": "view",
      "type": "function"
    },
    {
      "inputs": [
        {
          "internalType": "uint256",
          "name": "id",
          "type": "uint256"
        }
      ],
      "name": "getTenderById",
      "outputs": [
        {
          "components": [
            {
              "internalType": "uint256",
              "name": "id",
              "type": "uint256"
            },
            {
              "internalType": "address",
              "name": "auther",
              "type": "address"
            },
            {
              "internalType": "string",
              "name": "from",
              "type": "string"
            },
            {
              "internalType": "string",
              "name": "title",
              "type": "string"
            },
            {
              "internalType": "string",
              "name": "description",
              "type": "string"
            },
            {
              "internalType": "uint256",
              "name": "bidBond",
              "type": "uint256"
            },
            {
              "internalType": "uint256",
              "name": "prequalificationDeadline",
              "type": "uint256"
            },
            {
              "internalType": "uint256",
              "name": "bidSubmissionDeadline",
              "type": "uint256"
            },
            {
              "internalType": "uint256",
              "name": "contractSignDeadline",
              "type": "uint256"
            },
            {
              "internalType": "uint256",
              "name": "estimatedProjectCost",
              "type": "uint256"
            },
            {
              "internalType": "string",
              "name": "keyword",
              "type": "string"
            },
            {
              "internalType": "uint256",
              "name": "timestamp",
              "type": "uint256"
            }
          ],
          "internalType": "struct TenderApp.Tender",
          "name": "",
          "type": "tuple"
        }
      ],
      "stateMutability": "view",
      "type": "function"
    },
    {
      "inputs": [],
      "name": "getTenders",
      "outputs": [
        {
          "components": [
            {
              "internalType": "uint256",
              "name": "id",
              "type": "uint256"
            },
            {
              "internalType": "address",
              "name": "auther",
              "type": "address"
            },
            {
              "internalType": "string",
              "name": "from",
              "type": "string"
            },
            {
              "internalType": "string",
              "name": "title",
              "type": "string"
            },
            {
              "internalType": "string",
              "name": "description",
              "type": "string"
            },
            {
              "internalType": "uint256",
              "name": "bidBond",
              "type": "uint256"
            },
            {
              "internalType": "uint256",
              "name": "prequalificationDeadline",
              "type": "uint256"
            },
            {
              "internalType": "uint256",
              "name": "bidSubmissionDeadline",
              "type": "uint256"
            },
            {
              "internalType": "uint256",
              "name": "contractSignDeadline",
              "type": "uint256"
            },
            {
              "internalType": "uint256",
              "name": "estimatedProjectCost",
              "type": "uint256"
            },
            {
              "internalType": "string",
              "name": "keyword",
              "type": "string"
            },
            {
              "internalType": "uint256",
              "name": "timestamp",
              "type": "uint256"
            }
          ],
          "internalType": "struct TenderApp.Tender[10]",
          "name": "",
          "type": "tuple[10]"
        }
      ],
      "stateMutability": "view",
      "type": "function"
    },
    {
      "inputs": [],
      "name": "getTendersByApplicant",
      "outputs": [
        {
          "components": [
            {
              "internalType": "uint256",
              "name": "id",
              "type": "uint256"
            },
            {
              "internalType": "address",
              "name": "auther",
              "type": "address"
            },
            {
              "internalType": "string",
              "name": "from",
              "type": "string"
            },
            {
              "internalType": "string",
              "name": "title",
              "type": "string"
            },
            {
              "internalType": "string",
              "name": "description",
              "type": "string"
            },
            {
              "internalType": "uint256",
              "name": "bidBond",
              "type": "uint256"
            },
            {
              "internalType": "uint256",
              "name": "prequalificationDeadline",
              "type": "uint256"
            },
            {
              "internalType": "uint256",
              "name": "bidSubmissionDeadline",
              "type": "uint256"
            },
            {
              "internalType": "uint256",
              "name": "contractSignDeadline",
              "type": "uint256"
            },
            {
              "internalType": "uint256",
              "name": "estimatedProjectCost",
              "type": "uint256"
            },
            {
              "internalType": "string",
              "name": "keyword",
              "type": "string"
            },
            {
              "internalType": "uint256",
              "name": "timestamp",
              "type": "uint256"
            }
          ],
          "internalType": "struct TenderApp.Tender[]",
          "name": "",
          "type": "tuple[]"
        }
      ],
      "stateMutability": "view",
      "type": "function"
    },
    {
      "inputs": [],
      "name": "getTendersByAuthor",
      "outputs": [
        {
          "components": [
            {
              "internalType": "uint256",
              "name": "id",
              "type": "uint256"
            },
            {
              "internalType": "address",
              "name": "auther",
              "type": "address"
            },
            {
              "internalType": "string",
              "name": "from",
              "type": "string"
            },
            {
              "internalType": "string",
              "name": "title",
              "type": "string"
            },
            {
              "internalType": "string",
              "name": "description",
              "type": "string"
            },
            {
              "internalType": "uint256",
              "name": "bidBond",
              "type": "uint256"
            },
            {
              "internalType": "uint256",
              "name": "prequalificationDeadline",
              "type": "uint256"
            },
            {
              "internalType": "uint256",
              "name": "bidSubmissionDeadline",
              "type": "uint256"
            },
            {
              "internalType": "uint256",
              "name": "contractSignDeadline",
              "type": "uint256"
            },
            {
              "internalType": "uint256",
              "name": "estimatedProjectCost",
              "type": "uint256"
            },
            {
              "internalType": "string",
              "name": "keyword",
              "type": "string"
            },
            {
              "internalType": "uint256",
              "name": "timestamp",
              "type": "uint256"
            }
          ],
          "internalType": "struct TenderApp.Tender[]",
          "name": "",
          "type": "tuple[]"
        }
      ],
      "stateMutability": "view",
      "type": "function"
    },
    {
      "inputs": [
        {
          "internalType": "string",
          "name": "query",
          "type": "string"
        }
      ],
      "name": "searchTenders",
      "outputs": [
        {
          "components": [
            {
              "internalType": "uint256",
              "name": "id",
              "type": "uint256"
            },
            {
              "internalType": "address",
              "name": "auther",
              "type": "address"
            },
            {
              "internalType": "string",
              "name": "from",
              "type": "string"
            },
            {
              "internalType": "string",
              "name": "title",
              "type": "string"
            },
            {
              "internalType": "string",
              "name": "description",
              "type": "string"
            },
            {
              "internalType": "uint256",
              "name": "bidBond",
              "type": "uint256"
            },
            {
              "internalType": "uint256",
              "name": "prequalificationDeadline",
              "type": "uint256"
            },
            {
              "internalType": "uint256",
              "name": "bidSubmissionDeadline",
              "type": "uint256"
            },
            {
              "internalType": "uint256",
              "name": "contractSignDeadline",
              "type": "uint256"
            },
            {
              "internalType": "uint256",
              "name": "estimatedProjectCost",
              "type": "uint256"
            },
            {
              "internalType": "string",
              "name": "keyword",
              "type": "string"
            },
            {
              "internalType": "uint256",
              "name": "timestamp",
              "type": "uint256"
            }
          ],
          "internalType": "struct TenderApp.Tender[]",
          "name": "",
          "type": "tuple[]"
        }
      ],
      "stateMutability": "view",
      "type": "function"
    }
  ],
  "bytecode": "0x608060405234801561001057600080fd5b5060006002819055506000600381905550613b7a806100306000396000f3fe608060405234801561001057600080fd5b506004361061009e5760003560e01c806384663d9d1161006657806384663d9d1461015b578063a5ea7b2514610179578063e7ddf85e14610195578063ed39675f146101b3578063eee1f290146101e35761009e565b806303a8b488146100a357806312d0ec80146100d35780631cef87f3146100f15780636b4548d51461010d5780636ca0ff291461013d575b600080fd5b6100bd60048036038101906100b89190612823565b6101ff565b6040516100ca9190612ab7565b60405180910390f35b6100db610530565b6040516100e89190612ca8565b60405180910390f35b61010b60048036038101906101069190612e00565b61092e565b005b61012760048036038101906101229190612ef6565b610b91565b6040516101349190612fed565b60405180910390f35b610145610fcc565b6040516101529190612ab7565b60405180910390f35b610163611362565b6040516101709190612fed565b60405180910390f35b610193600480360381019061018e919061300f565b6117c7565b005b61019d611993565b6040516101aa9190612fed565b60405180910390f35b6101cd60048036038101906101c89190612823565b611d96565b6040516101da9190613262565b60405180910390f35b6101fd60048036038101906101f89190613284565b6120fe565b005b6060600060018054905067ffffffffffffffff81111561022257610221612ccf565b5b60405190808252806020026020018201604052801561025b57816020015b6102486126df565b8152602001906001900390816102405790505b5090506000805b600180549050811015610522576000600182815481106102855761028461333f565b5b90600052602060002090600702016040518060e0016040529081600082015481526020016001820160009054906101000a900473ffffffffffffffffffffffffffffffffffffffff1673ffffffffffffffffffffffffffffffffffffffff1673ffffffffffffffffffffffffffffffffffffffff16815260200160028201805461030e9061339d565b80601f016020809104026020016040519081016040528092919081815260200182805461033a9061339d565b80156103875780601f1061035c57610100808354040283529160200191610387565b820191906000526020600020905b81548152906001019060200180831161036a57829003601f168201915b505050505081526020016003820180546103a09061339d565b80601f01602080910402602001604051908101604052809291908181526020018280546103cc9061339d565b80156104195780601f106103ee57610100808354040283529160200191610419565b820191906000526020600020905b8154815290600101906020018083116103fc57829003601f168201915b505050505081526020016004820180546104329061339d565b80601f016020809104026020016040519081016040528092919081815260200182805461045e9061339d565b80156104ab5780601f10610480576101008083540402835291602001916104ab565b820191906000526020600020905b81548152906001019060200180831161048e57829003601f168201915b505050505081526020016005820160009054906101000a900460ff1615151515815260200160068201548152505090508581600001510361051457808484815181106104fa576104f961333f565b5b60200260200101819052508280610510906133fd565b9350505b508080600101915050610262565b508082528192505050919050565b610538612734565b600080805490501161057f576040517f08c379a0000000000000000000000000000000000000000000000000000000008152600401610576906134a2565b60405180910390fd5b610587612734565b6000600a6000805490501161059d5760006105b0565b600a6000805490506105af91906134c2565b5b905060005b600a8110156109255760008054905081836105d091906134f6565b101561091357600081836105e491906134f6565b815481106105f5576105f461333f565b5b90600052602060002090600c020160405180610180016040529081600082015481526020016001820160009054906101000a900473ffffffffffffffffffffffffffffffffffffffff1673ffffffffffffffffffffffffffffffffffffffff1673ffffffffffffffffffffffffffffffffffffffff16815260200160028201805461067f9061339d565b80601f01602080910402602001604051908101604052809291908181526020018280546106ab9061339d565b80156106f85780601f106106cd576101008083540402835291602001916106f8565b820191906000526020600020905b8154815290600101906020018083116106db57829003601f168201915b505050505081526020016003820180546107119061339d565b80601f016020809104026020016040519081016040528092919081815260200182805461073d9061339d565b801561078a5780601f1061075f5761010080835404028352916020019161078a565b820191906000526020600020905b81548152906001019060200180831161076d57829003601f168201915b505050505081526020016004820180546107a39061339d565b80601f01602080910402602001604051908101604052809291908181526020018280546107cf9061339d565b801561081c5780601f106107f15761010080835404028352916020019161081c565b820191906000526020600020905b8154815290600101906020018083116107ff57829003601f168201915b505050505081526020016005820154815260200160068201548152602001600782015481526020016008820154815260200160098201548152602001600a820180546108679061339d565b80601f01602080910402602001604051908101604052809291908181526020018280546108939061339d565b80156108e05780601f106108b5576101008083540402835291602001916108e0565b820191906000526020600020905b8154815290600101906020018083116108c357829003601f168201915b50505050508152602001600b820154815250508382600a81106109065761090561333f565b5b6020020181905250610918565b610925565b80806001019150506105b5565b50819250505090565b60008060005b600180549050811015610b4a5784600182815481106109565761095561333f565b5b9060005260206000209060070201600001541480156109e557503373ffffffffffffffffffffffffffffffffffffffff166001828154811061099b5761099a61333f565b5b906000526020600020906007020160010160009054906101000a900473ffffffffffffffffffffffffffffffffffffffff1673ffffffffffffffffffffffffffffffffffffffff16145b15610b3d57600181815481106109fe576109fd61333f565b5b906000526020600020906007020160050160009054906101000a900460ff1615610a5d576040517f08c379a0000000000000000000000000000000000000000000000000000000008152600401610a549061359c565b60405180910390fd5b60005b6035811015610acc576000610a80600183610a7b91906134f6565b612384565b9050600a81878460358110610a9857610a9761333f565b5b6020020151610aa791906135bc565b610ab1919061362d565b85610abc91906134f6565b9450508080600101915050610a60565b506001808281548110610ae257610ae161333f565b5b906000526020600020906007020160050160006101000a81548160ff0219169083151502179055508260018281548110610b1f57610b1e61333f565b5b90600052602060002090600702016006018190555060019150610b4a565b8080600101915050610934565b5080610b8b576040517f08c379a0000000000000000000000000000000000000000000000000000000008152600401610b82906136d0565b60405180910390fd5b50505050565b60606000825111610bd7576040517f08c379a0000000000000000000000000000000000000000000000000000000008152600401610bce9061373c565b60405180910390fd5b6000808054905067ffffffffffffffff811115610bf757610bf6612ccf565b5b604051908082528060200260200182016040528015610c3057816020015b610c1d612762565b815260200190600190039081610c155790505b5090506000805b600080549050811015610fbe576000808281548110610c5957610c5861333f565b5b90600052602060002090600c020160405180610180016040529081600082015481526020016001820160009054906101000a900473ffffffffffffffffffffffffffffffffffffffff1673ffffffffffffffffffffffffffffffffffffffff1673ffffffffffffffffffffffffffffffffffffffff168152602001600282018054610ce39061339d565b80601f0160208091040260200160405190810160405280929190818152602001828054610d0f9061339d565b8015610d5c5780601f10610d3157610100808354040283529160200191610d5c565b820191906000526020600020905b815481529060010190602001808311610d3f57829003601f168201915b50505050508152602001600382018054610d759061339d565b80601f0160208091040260200160405190810160405280929190818152602001828054610da19061339d565b8015610dee5780601f10610dc357610100808354040283529160200191610dee565b820191906000526020600020905b815481529060010190602001808311610dd157829003601f168201915b50505050508152602001600482018054610e079061339d565b80601f0160208091040260200160405190810160405280929190818152602001828054610e339061339d565b8015610e805780601f10610e5557610100808354040283529160200191610e80565b820191906000526020600020905b815481529060010190602001808311610e6357829003601f168201915b505050505081526020016005820154815260200160068201548152602001600782015481526020016008820154815260200160098201548152602001600a82018054610ecb9061339d565b80601f0160208091040260200160405190810160405280929190818152602001828054610ef79061339d565b8015610f445780601f10610f1957610100808354040283529160200191610f44565b820191906000526020600020905b815481529060010190602001808311610f2757829003601f168201915b50505050508152602001600b820154815250509050610f678160600151876125f9565b80610f7d5750610f7c816101400151876125f9565b5b15610fb05780848481518110610f9657610f9561333f565b5b60200260200101819052508280610fac906133fd565b9350505b508080600101915050610c37565b508082528192505050919050565b6060600060018054905067ffffffffffffffff811115610fef57610fee612ccf565b5b60405190808252806020026020018201604052801561102857816020015b6110156126df565b81526020019060019003908161100d5790505b5090506000805b600180549050811015611356573373ffffffffffffffffffffffffffffffffffffffff16600182815481106110675761106661333f565b5b906000526020600020906007020160010160009054906101000a900473ffffffffffffffffffffffffffffffffffffffff1673ffffffffffffffffffffffffffffffffffffffff160361134957600181815481106110c8576110c761333f565b5b90600052602060002090600702016040518060e0016040529081600082015481526020016001820160009054906101000a900473ffffffffffffffffffffffffffffffffffffffff1673ffffffffffffffffffffffffffffffffffffffff1673ffffffffffffffffffffffffffffffffffffffff1681526020016002820180546111519061339d565b80601f016020809104026020016040519081016040528092919081815260200182805461117d9061339d565b80156111ca5780601f1061119f576101008083540402835291602001916111ca565b820191906000526020600020905b8154815290600101906020018083116111ad57829003601f168201915b505050505081526020016003820180546111e39061339d565b80601f016020809104026020016040519081016040528092919081815260200182805461120f9061339d565b801561125c5780601f106112315761010080835404028352916020019161125c565b820191906000526020600020905b81548152906001019060200180831161123f57829003601f168201915b505050505081526020016004820180546112759061339d565b80601f01602080910402602001604051908101604052809291908181526020018280546112a19061339d565b80156112ee5780601f106112c3576101008083540402835291602001916112ee565b820191906000526020600020905b8154815290600101906020018083116112d157829003601f168201915b505050505081526020016005820160009054906101000a900460ff1615151515815260200160068201548152505083838151811061132f5761132e61333f565b5b60200260200101819052508180611345906133fd565b9250505b808060010191505061102f565b50808252819250505090565b6060600060018054905067ffffffffffffffff81111561138557611384612ccf565b5b6040519080825280602002602001820160405280156113be57816020015b6113ab612762565b8152602001906001900390816113a35790505b5090506000805b6001805490508110156117bb573373ffffffffffffffffffffffffffffffffffffffff16600182815481106113fd576113fc61333f565b5b906000526020600020906007020160010160009054906101000a900473ffffffffffffffffffffffffffffffffffffffff1673ffffffffffffffffffffffffffffffffffffffff16036117ae576000600182815481106114605761145f61333f565b5b906000526020600020906007020160000154815481106114835761148261333f565b5b90600052602060002090600c020160405180610180016040529081600082015481526020016001820160009054906101000a900473ffffffffffffffffffffffffffffffffffffffff1673ffffffffffffffffffffffffffffffffffffffff1673ffffffffffffffffffffffffffffffffffffffff16815260200160028201805461150d9061339d565b80601f01602080910402602001604051908101604052809291908181526020018280546115399061339d565b80156115865780601f1061155b57610100808354040283529160200191611586565b820191906000526020600020905b81548152906001019060200180831161156957829003601f168201915b5050505050815260200160038201805461159f9061339d565b80601f01602080910402602001604051908101604052809291908181526020018280546115cb9061339d565b80156116185780601f106115ed57610100808354040283529160200191611618565b820191906000526020600020905b8154815290600101906020018083116115fb57829003601f168201915b505050505081526020016004820180546116319061339d565b80601f016020809104026020016040519081016040528092919081815260200182805461165d9061339d565b80156116aa5780601f1061167f576101008083540402835291602001916116aa565b820191906000526020600020905b81548152906001019060200180831161168d57829003601f168201915b505050505081526020016005820154815260200160068201548152602001600782015481526020016008820154815260200160098201548152602001600a820180546116f59061339d565b80601f01602080910402602001604051908101604052809291908181526020018280546117219061339d565b801561176e5780601f106117435761010080835404028352916020019161176e565b820191906000526020600020905b81548152906001019060200180831161175157829003601f168201915b50505050508152602001600b820154815250508383815181106117945761179361333f565b5b602002602001018190525081806117aa906133fd565b9250505b80806001019150506113c5565b50808252819250505090565b600060405180610180016040528060025481526020013373ffffffffffffffffffffffffffffffffffffffff1681526020018b81526020018a81526020018981526020018881526020018781526020018681526020018581526020018481526020018381526020014281525090806001815401808255809150506001900390600052602060002090600c02016000909190919091506000820151816000015560208201518160010160006101000a81548173ffffffffffffffffffffffffffffffffffffffff021916908373ffffffffffffffffffffffffffffffffffffffff16021790555060408201518160020190816118c29190613908565b5060608201518160030190816118d89190613908565b5060808201518160040190816118ee9190613908565b5060a0820151816005015560c0820151816006015560e082015181600701556101008201518160080155610120820151816009015561014082015181600a0190816119399190613908565b5061016082015181600b015550507f5991bd552d448a9d84936cae61a2c481ab36bf3361653f4a198279fa2373c11860405160405180910390a1600160025461198291906134f6565b600281905550505050505050505050565b60606000808054905067ffffffffffffffff8111156119b5576119b4612ccf565b5b6040519080825280602002602001820160405280156119ee57816020015b6119db612762565b8152602001906001900390816119d35790505b5090506000805b600080549050811015611d8a576000808281548110611a1757611a1661333f565b5b90600052602060002090600c020160405180610180016040529081600082015481526020016001820160009054906101000a900473ffffffffffffffffffffffffffffffffffffffff1673ffffffffffffffffffffffffffffffffffffffff1673ffffffffffffffffffffffffffffffffffffffff168152602001600282018054611aa19061339d565b80601f0160208091040260200160405190810160405280929190818152602001828054611acd9061339d565b8015611b1a5780601f10611aef57610100808354040283529160200191611b1a565b820191906000526020600020905b815481529060010190602001808311611afd57829003601f168201915b50505050508152602001600382018054611b339061339d565b80601f0160208091040260200160405190810160405280929190818152602001828054611b5f9061339d565b8015611bac5780601f10611b8157610100808354040283529160200191611bac565b820191906000526020600020905b815481529060010190602001808311611b8f57829003601f168201915b50505050508152602001600482018054611bc59061339d565b80601f0160208091040260200160405190810160405280929190818152602001828054611bf19061339d565b8015611c3e5780601f10611c1357610100808354040283529160200191611c3e565b820191906000526020600020905b815481529060010190602001808311611c2157829003601f168201915b505050505081526020016005820154815260200160068201548152602001600782015481526020016008820154815260200160098201548152602001600a82018054611c899061339d565b80601f0160208091040260200160405190810160405280929190818152602001828054611cb59061339d565b8015611d025780601f10611cd757610100808354040283529160200191611d02565b820191906000526020600020905b815481529060010190602001808311611ce557829003601f168201915b50505050508152602001600b8201548152505090503373ffffffffffffffffffffffffffffffffffffffff16816020015173ffffffffffffffffffffffffffffffffffffffff1603611d7c5780848481518110611d6257611d6161333f565b5b60200260200101819052508280611d78906133fd565b9350505b5080806001019150506119f5565b50808252819250505090565b611d9e612762565b6000805490508210611de5576040517f08c379a0000000000000000000000000000000000000000000000000000000008152600401611ddc90613a26565b60405180910390fd5b60008281548110611df957611df861333f565b5b90600052602060002090600c020160405180610180016040529081600082015481526020016001820160009054906101000a900473ffffffffffffffffffffffffffffffffffffffff1673ffffffffffffffffffffffffffffffffffffffff1673ffffffffffffffffffffffffffffffffffffffff168152602001600282018054611e839061339d565b80601f0160208091040260200160405190810160405280929190818152602001828054611eaf9061339d565b8015611efc5780601f10611ed157610100808354040283529160200191611efc565b820191906000526020600020905b815481529060010190602001808311611edf57829003601f168201915b50505050508152602001600382018054611f159061339d565b80601f0160208091040260200160405190810160405280929190818152602001828054611f419061339d565b8015611f8e5780601f10611f6357610100808354040283529160200191611f8e565b820191906000526020600020905b815481529060010190602001808311611f7157829003601f168201915b50505050508152602001600482018054611fa79061339d565b80601f0160208091040260200160405190810160405280929190818152602001828054611fd39061339d565b80156120205780601f10611ff557610100808354040283529160200191612020565b820191906000526020600020905b81548152906001019060200180831161200357829003601f168201915b505050505081526020016005820154815260200160068201548152602001600782015481526020016008820154815260200160098201548152602001600a8201805461206b9061339d565b80601f01602080910402602001604051908101604052809291908181526020018280546120979061339d565b80156120e45780601f106120b9576101008083540402835291602001916120e4565b820191906000526020600020905b8154815290600101906020018083116120c757829003601f168201915b50505050508152602001600b820154815250509050919050565b6000805490508410612145576040517f08c379a000000000000000000000000000000000000000000000000000000000815260040161213c90613a92565b60405180910390fd5b60005b60018054905081101561224657846001828154811061216a5761216961333f565b5b9060005260206000209060070201600001541480156121f957503373ffffffffffffffffffffffffffffffffffffffff16600182815481106121af576121ae61333f565b5b906000526020600020906007020160010160009054906101000a900473ffffffffffffffffffffffffffffffffffffffff1673ffffffffffffffffffffffffffffffffffffffff16145b15612239576040517f08c379a000000000000000000000000000000000000000000000000000000000815260040161223090613b24565b60405180910390fd5b8080600101915050612148565b5060016040518060e001604052808681526020013373ffffffffffffffffffffffffffffffffffffffff168152602001858152602001848152602001838152602001600015158152602001600081525090806001815401808255809150506001900390600052602060002090600702016000909190919091506000820151816000015560208201518160010160006101000a81548173ffffffffffffffffffffffffffffffffffffffff021916908373ffffffffffffffffffffffffffffffffffffffff16021790555060408201518160020190816123259190613908565b50606082015181600301908161233b9190613908565b5060808201518160040190816123519190613908565b5060a08201518160050160006101000a81548160ff02191690831515021790555060c08201518160060155505050505050565b600060018214806123955750600282145b806123a05750600382145b806123ab5750600482145b806123b65750600582145b806123c15750600682145b806123cc5750600782145b806123d75750600982145b806123e25750600a82145b806123ed5750600b82145b806123f85750600c82145b806124035750600e82145b8061240e5750600f82145b806124195750601082145b806124245750601182145b8061242f5750601282145b8061243a5750601382145b806124455750601482145b806124505750601582145b8061245b5750601782145b806124665750601882145b806124715750601982145b8061247c5750601a82145b806124875750601e82145b806124925750601f82145b8061249d5750602482145b806124a85750602582145b806124b35750602682145b806124be5750602782145b806124c95750602882145b806124d45750602982145b806124df5750602a82145b156124ed57600a90506125f4565b600882036124fe57601490506125f4565b600d82148061250d5750601b82145b806125185750601c82145b806125235750602082145b8061252e5750602182145b806125395750602282145b806125445750602382145b1561255257600590506125f4565b60168214806125615750601d82145b1561256f57600190506125f4565b602b82148061257e5750602c82145b806125895750602d82145b806125945750602e82145b8061259f5750602f82145b806125aa5750603082145b806125b55750603182145b806125c05750603282145b806125cb5750603382145b806125d65750603482145b806125e15750603582145b156125ef57600a90506125f4565b600090505b919050565b60008083905060008390506000805b83518110156126d0578282815181106126245761262361333f565b5b602001015160f81c60f81b7effffffffffffffffffffffffffffffffffffffffffffffffffffffffffffff19168482815181106126645761266361333f565b5b602001015160f81c60f81b7effffffffffffffffffffffffffffffffffffffffffffffffffffffffffffff1916036126be5781806126a1906133fd565b925050825182036126b95760019450505050506126d9565b6126c3565b600091505b8080600101915050612608565b50600093505050505b92915050565b6040518060e0016040528060008152602001600073ffffffffffffffffffffffffffffffffffffffff168152602001606081526020016060815260200160608152602001600015158152602001600081525090565b604051806101400160405280600a905b61274c612762565b8152602001906001900390816127445790505090565b60405180610180016040528060008152602001600073ffffffffffffffffffffffffffffffffffffffff168152602001606081526020016060815260200160608152602001600081526020016000815260200160008152602001600081526020016000815260200160608152602001600081525090565b6000604051905090565b600080fd5b600080fd5b6000819050919050565b612800816127ed565b811461280b57600080fd5b50565b60008135905061281d816127f7565b92915050565b600060208284031215612839576128386127e3565b5b60006128478482850161280e565b91505092915050565b600081519050919050565b600082825260208201905092915050565b6000819050602082019050919050565b612885816127ed565b82525050565b600073ffffffffffffffffffffffffffffffffffffffff82169050919050565b60006128b68261288b565b9050919050565b6128c6816128ab565b82525050565b600081519050919050565b600082825260208201905092915050565b60005b838110156129065780820151818401526020810190506128eb565b60008484015250505050565b6000601f19601f8301169050919050565b600061292e826128cc565b61293881856128d7565b93506129488185602086016128e8565b61295181612912565b840191505092915050565b60008115159050919050565b6129718161295c565b82525050565b600060e08301600083015161298f600086018261287c565b5060208301516129a260208601826128bd565b50604083015184820360408601526129ba8282612923565b915050606083015184820360608601526129d48282612923565b915050608083015184820360808601526129ee8282612923565b91505060a0830151612a0360a0860182612968565b5060c0830151612a1660c086018261287c565b508091505092915050565b6000612a2d8383612977565b905092915050565b6000602082019050919050565b6000612a4d82612850565b612a57818561285b565b935083602082028501612a698561286c565b8060005b85811015612aa55784840389528151612a868582612a21565b9450612a9183612a35565b925060208a01995050600181019050612a6d565b50829750879550505050505092915050565b60006020820190508181036000830152612ad18184612a42565b905092915050565b6000600a9050919050565b600081905092915050565b6000819050919050565b600061018083016000830151612b12600086018261287c565b506020830151612b2560208601826128bd565b5060408301518482036040860152612b3d8282612923565b91505060608301518482036060860152612b578282612923565b91505060808301518482036080860152612b718282612923565b91505060a0830151612b8660a086018261287c565b5060c0830151612b9960c086018261287c565b5060e0830151612bac60e086018261287c565b50610100830151612bc161010086018261287c565b50610120830151612bd661012086018261287c565b50610140830151848203610140860152612bf08282612923565b915050610160830151612c0761016086018261287c565b508091505092915050565b6000612c1e8383612af9565b905092915050565b6000602082019050919050565b6000612c3e82612ad9565b612c488185612ae4565b935083602082028501612c5a85612aef565b8060005b85811015612c965784840389528151612c778582612c12565b9450612c8283612c26565b925060208a01995050600181019050612c5e565b50829750879550505050505092915050565b60006020820190508181036000830152612cc28184612c33565b905092915050565b600080fd5b7f4e487b7100000000000000000000000000000000000000000000000000000000600052604160045260246000fd5b612d0782612912565b810181811067ffffffffffffffff82111715612d2657612d25612ccf565b5b80604052505050565b6000612d396127d9565b9050612d458282612cfe565b919050565b600067ffffffffffffffff821115612d6557612d64612ccf565b5b602082029050919050565b600080fd5b6000612d88612d8384612d4a565b612d2f565b90508060208402830185811115612da257612da1612d70565b5b835b81811015612dcb5780612db7888261280e565b845260208401935050602081019050612da4565b5050509392505050565b600082601f830112612dea57612de9612cca565b5b6035612df7848285612d75565b91505092915050565b6000806106c08385031215612e1857612e176127e3565b5b6000612e268582860161280e565b9250506020612e3785828601612dd5565b9150509250929050565b600080fd5b600067ffffffffffffffff821115612e6157612e60612ccf565b5b612e6a82612912565b9050602081019050919050565b82818337600083830152505050565b6000612e99612e9484612e46565b612d2f565b905082815260208101848484011115612eb557612eb4612e41565b5b612ec0848285612e77565b509392505050565b600082601f830112612edd57612edc612cca565b5b8135612eed848260208601612e86565b91505092915050565b600060208284031215612f0c57612f0b6127e3565b5b600082013567ffffffffffffffff811115612f2a57612f296127e8565b5b612f3684828501612ec8565b91505092915050565b600081519050919050565b600082825260208201905092915050565b6000819050602082019050919050565b6000602082019050919050565b6000612f8382612f3f565b612f8d8185612f4a565b935083602082028501612f9f85612f5b565b8060005b85811015612fdb5784840389528151612fbc8582612c12565b9450612fc783612f6b565b925060208a01995050600181019050612fa3565b50829750879550505050505092915050565b600060208201905081810360008301526130078184612f78565b905092915050565b60008060008060008060008060006101208a8c031215613032576130316127e3565b5b60008a013567ffffffffffffffff8111156130505761304f6127e8565b5b61305c8c828d01612ec8565b99505060208a013567ffffffffffffffff81111561307d5761307c6127e8565b5b6130898c828d01612ec8565b98505060408a013567ffffffffffffffff8111156130aa576130a96127e8565b5b6130b68c828d01612ec8565b97505060606130c78c828d0161280e565b96505060806130d88c828d0161280e565b95505060a06130e98c828d0161280e565b94505060c06130fa8c828d0161280e565b93505060e061310b8c828d0161280e565b9250506101008a013567ffffffffffffffff81111561312d5761312c6127e8565b5b6131398c828d01612ec8565b9150509295985092959850929598565b600061018083016000830151613162600086018261287c565b50602083015161317560208601826128bd565b506040830151848203604086015261318d8282612923565b915050606083015184820360608601526131a78282612923565b915050608083015184820360808601526131c18282612923565b91505060a08301516131d660a086018261287c565b5060c08301516131e960c086018261287c565b5060e08301516131fc60e086018261287c565b5061010083015161321161010086018261287c565b5061012083015161322661012086018261287c565b506101408301518482036101408601526132408282612923565b91505061016083015161325761016086018261287c565b508091505092915050565b6000602082019050818103600083015261327c8184613149565b905092915050565b6000806000806080858703121561329e5761329d6127e3565b5b60006132ac8782880161280e565b945050602085013567ffffffffffffffff8111156132cd576132cc6127e8565b5b6132d987828801612ec8565b935050604085013567ffffffffffffffff8111156132fa576132f96127e8565b5b61330687828801612ec8565b925050606085013567ffffffffffffffff811115613327576133266127e8565b5b61333387828801612ec8565b91505092959194509250565b7f4e487b7100000000000000000000000000000000000000000000000000000000600052603260045260246000fd5b7f4e487b7100000000000000000000000000000000000000000000000000000000600052602260045260246000fd5b600060028204905060018216806133b557607f821691505b6020821081036133c8576133c761336e565b5b50919050565b7f4e487b7100000000000000000000000000000000000000000000000000000000600052601160045260246000fd5b6000613408826127ed565b91507fffffffffffffffffffffffffffffffffffffffffffffffffffffffffffffffff820361343a576134396133ce565b5b600182019050919050565b600082825260208201905092915050565b7f4e6f2074656e6465727320617661696c61626c65000000000000000000000000600082015250565b600061348c601483613445565b915061349782613456565b602082019050919050565b600060208201905081810360008301526134bb8161347f565b9050919050565b60006134cd826127ed565b91506134d8836127ed565b92508282039050818111156134f0576134ef6133ce565b5b92915050565b6000613501826127ed565b915061350c836127ed565b9250828201905080821115613524576135236133ce565b5b92915050565b7f596f7520616c726561647920636f6d706c6574656420746865206170706c696360008201527f6174696f6e000000000000000000000000000000000000000000000000000000602082015250565b6000613586602583613445565b91506135918261352a565b604082019050919050565b600060208201905081810360008301526135b581613579565b9050919050565b60006135c7826127ed565b91506135d2836127ed565b92508282026135e0816127ed565b915082820484148315176135f7576135f66133ce565b5b5092915050565b7f4e487b7100000000000000000000000000000000000000000000000000000000600052601260045260246000fd5b6000613638826127ed565b9150613643836127ed565b925082613653576136526135fe565b5b828204905092915050565b7f4e6f206170706c69636174696f6e20666f756e6420666f72207468652067697660008201527f656e2074656e64657220494420616e642073656e646572000000000000000000602082015250565b60006136ba603783613445565b91506136c58261365e565b604082019050919050565b600060208201905081810360008301526136e9816136ad565b9050919050565b7f456d707479207365617263682071756572790000000000000000000000000000600082015250565b6000613726601283613445565b9150613731826136f0565b602082019050919050565b6000602082019050818103600083015261375581613719565b9050919050565b60008190508160005260206000209050919050565b60006020601f8301049050919050565b600082821b905092915050565b6000600883026137be7fffffffffffffffffffffffffffffffffffffffffffffffffffffffffffffffff82613781565b6137c88683613781565b95508019841693508086168417925050509392505050565b6000819050919050565b60006138056138006137fb846127ed565b6137e0565b6127ed565b9050919050565b6000819050919050565b61381f836137ea565b61383361382b8261380c565b84845461378e565b825550505050565b600090565b61384861383b565b613853818484613816565b505050565b5b818110156138775761386c600082613840565b600181019050613859565b5050565b601f8211156138bc5761388d8161375c565b61389684613771565b810160208510156138a5578190505b6138b96138b185613771565b830182613858565b50505b505050565b600082821c905092915050565b60006138df600019846008026138c1565b1980831691505092915050565b60006138f883836138ce565b9150826002028217905092915050565b613911826128cc565b67ffffffffffffffff81111561392a57613929612ccf565b5b613934825461339d565b61393f82828561387b565b600060209050601f8311600181146139725760008415613960578287015190505b61396a85826138ec565b8655506139d2565b601f1984166139808661375c565b60005b828110156139a857848901518255600182019150602085019450602081019050613983565b868310156139c557848901516139c1601f8916826138ce565b8355505b6001600288020188555050505b505050505050565b7f496e76616c69642074656e646572204944000000000000000000000000000000600082015250565b6000613a10601183613445565b9150613a1b826139da565b602082019050919050565b60006020820190508181036000830152613a3f81613a03565b9050919050565b7f496e76616c69642074656e64657220696e646578000000000000000000000000600082015250565b6000613a7c601483613445565b9150613a8782613a46565b602082019050919050565b60006020820190508181036000830152613aab81613a6f565b9050919050565b7f596f75206861766520616c7265616479206170706c69656420746f207468697360008201527f2074656e64657200000000000000000000000000000000000000000000000000602082015250565b6000613b0e602783613445565b9150613b1982613ab2565b604082019050919050565b60006020820190508181036000830152613b3d81613b01565b905091905056fea2646970667358221220a1034b9d822d370ee5eb743c862bf43ad68d31b42666b5440e149deb1a5edaed64736f6c63430008180033",
  "linkReferences": {},
  "deployedLinkReferences": {}
}