{
  "_format": "hh-sol-artifact-1",
  "contractName": "TenderApp",
  "sourceName": "contracts/TenderApp.sol",
  "abi": [
    {
      "inputs": [],
      "stateMutability": "nonpayable",
      "type": "constructor"
    },
    {
      "anonymous": false,
      "inputs": [],
      "name": "Announce",
      "type": "event"
    },
    {
      "inputs": [
        {
          "internalType": "string",
          "name": "title",
          "type": "string"
        },
        {
          "internalType": "string",
          "name": "description",
          "type": "string"
        },
        {
          "internalType": "string",
          "name": "keyword",
          "type": "string"
        },
        {
          "internalType": "uint256",
          "name": "bidBond",
          "type": "uint256"
        },
        {
          "internalType": "uint256",
          "name": "estimatedCost",
          "type": "uint256"
        }
      ],
      "name": "createTender",
      "outputs": [],
      "stateMutability": "nonpayable",
      "type": "function"
    },
    {
      "inputs": [],
      "name": "getTenders",
      "outputs": [
        {
          "components": [
            {
              "internalType": "address",
              "name": "auther",
              "type": "address"
            },
            {
              "internalType": "string",
              "name": "title",
              "type": "string"
            },
            {
              "internalType": "string",
              "name": "description",
              "type": "string"
            },
            {
              "internalType": "string",
              "name": "keyword",
              "type": "string"
            },
            {
              "internalType": "uint256",
              "name": "bidBond",
              "type": "uint256"
            },
            {
              "internalType": "uint256",
              "name": "estimatedCost",
              "type": "uint256"
            },
            {
              "internalType": "uint256",
              "name": "timestamp",
              "type": "uint256"
            }
          ],
          "internalType": "struct TenderApp.Tender[10]",
          "name": "",
          "type": "tuple[10]"
        }
      ],
      "stateMutability": "view",
      "type": "function"
    },
    {
      "inputs": [
        {
          "internalType": "string",
          "name": "query",
          "type": "string"
        }
      ],
      "name": "searchTenders",
      "outputs": [
        {
          "components": [
            {
              "internalType": "address",
              "name": "auther",
              "type": "address"
            },
            {
              "internalType": "string",
              "name": "title",
              "type": "string"
            },
            {
              "internalType": "string",
              "name": "description",
              "type": "string"
            },
            {
              "internalType": "string",
              "name": "keyword",
              "type": "string"
            },
            {
              "internalType": "uint256",
              "name": "bidBond",
              "type": "uint256"
            },
            {
              "internalType": "uint256",
              "name": "estimatedCost",
              "type": "uint256"
            },
            {
              "internalType": "uint256",
              "name": "timestamp",
              "type": "uint256"
            }
          ],
          "internalType": "struct TenderApp.Tender[]",
          "name": "",
          "type": "tuple[]"
        }
      ],
      "stateMutability": "view",
      "type": "function"
    }
  ],
  "bytecode": "0x608060405234801561001057600080fd5b5060006001819055506114be806100286000396000f3fe608060405234801561001057600080fd5b50600436106100415760003560e01c806312d0ec80146100465780636b4548d514610064578063af6761e414610094575b600080fd5b61004e6100b0565b60405161005b9190610c68565b60405180910390f35b61007e60048036038101906100799190610dd3565b6103bb565b60405161008b9190610eca565b60405180910390f35b6100ae60048036038101906100a99190610f18565b61074f565b005b6100b861099d565b60008080549050116100ff576040517f08c379a00000000000000000000000000000000000000000000000000000000081526004016100f690611044565b60405180910390fd5b61010761099d565b60005b600a8110801561011c57508060015410155b156103b3576000816001546101319190611093565b81548110610142576101416110c7565b5b90600052602060002090600702016040518060e00160405290816000820160009054906101000a900473ffffffffffffffffffffffffffffffffffffffff1673ffffffffffffffffffffffffffffffffffffffff1673ffffffffffffffffffffffffffffffffffffffff1681526020016001820180546101c190611125565b80601f01602080910402602001604051908101604052809291908181526020018280546101ed90611125565b801561023a5780601f1061020f5761010080835404028352916020019161023a565b820191906000526020600020905b81548152906001019060200180831161021d57829003601f168201915b5050505050815260200160028201805461025390611125565b80601f016020809104026020016040519081016040528092919081815260200182805461027f90611125565b80156102cc5780601f106102a1576101008083540402835291602001916102cc565b820191906000526020600020905b8154815290600101906020018083116102af57829003601f168201915b505050505081526020016003820180546102e590611125565b80601f016020809104026020016040519081016040528092919081815260200182805461031190611125565b801561035e5780601f106103335761010080835404028352916020019161035e565b820191906000526020600020905b81548152906001019060200180831161034157829003601f168201915b5050505050815260200160048201548152602001600582015481526020016006820154815250508282600a8110610398576103976110c7565b5b602002018190525080806103ab90611156565b91505061010a565b508091505090565b60606000825111610401576040517f08c379a00000000000000000000000000000000000000000000000000000000081526004016103f8906111ea565b60405180910390fd5b6000808054905067ffffffffffffffff81111561042157610420610ca8565b5b60405190808252806020026020018201604052801561045a57816020015b6104476109cb565b81526020019060019003908161043f5790505b5090506000805b600080549050811015610741576000808281548110610483576104826110c7565b5b90600052602060002090600702016040518060e00160405290816000820160009054906101000a900473ffffffffffffffffffffffffffffffffffffffff1673ffffffffffffffffffffffffffffffffffffffff1673ffffffffffffffffffffffffffffffffffffffff16815260200160018201805461050290611125565b80601f016020809104026020016040519081016040528092919081815260200182805461052e90611125565b801561057b5780601f106105505761010080835404028352916020019161057b565b820191906000526020600020905b81548152906001019060200180831161055e57829003601f168201915b5050505050815260200160028201805461059490611125565b80601f01602080910402602001604051908101604052809291908181526020018280546105c090611125565b801561060d5780601f106105e25761010080835404028352916020019161060d565b820191906000526020600020905b8154815290600101906020018083116105f057829003601f168201915b5050505050815260200160038201805461062690611125565b80601f016020809104026020016040519081016040528092919081815260200182805461065290611125565b801561069f5780601f106106745761010080835404028352916020019161069f565b820191906000526020600020905b81548152906001019060200180831161068257829003601f168201915b50505050508152602001600482015481526020016005820154815260200160068201548152505090506106d68160200151876108b7565b806106eb57506106ea8160400151876108b7565b5b8061070057506106ff8160600151876108b7565b5b156107335780848481518110610719576107186110c7565b5b6020026020010181905250828061072f90611156565b9350505b508080600101915050610461565b508082528192505050919050565b60006040518060e001604052803373ffffffffffffffffffffffffffffffffffffffff16815260200187815260200186815260200185815260200184815260200183815260200142815250908060018154018082558091505060019003906000526020600020906007020160009091909190915060008201518160000160006101000a81548173ffffffffffffffffffffffffffffffffffffffff021916908373ffffffffffffffffffffffffffffffffffffffff160217905550602082015181600101908161081f91906113b6565b50604082015181600201908161083591906113b6565b50606082015181600301908161084b91906113b6565b506080820151816004015560a0820151816005015560c0820151816006015550507f5991bd552d448a9d84936cae61a2c481ab36bf3361653f4a198279fa2373c11860405160405180910390a160016000805490506108aa9190611093565b6001819055505050505050565b60008083905060008390506000805b835181101561098e578282815181106108e2576108e16110c7565b5b602001015160f81c60f81b7effffffffffffffffffffffffffffffffffffffffffffffffffffffffffffff1916848281518110610922576109216110c7565b5b602001015160f81c60f81b7effffffffffffffffffffffffffffffffffffffffffffffffffffffffffffff19160361097c57818061095f90611156565b92505082518203610977576001945050505050610997565b610981565b600091505b80806001019150506108c6565b50600093505050505b92915050565b604051806101400160405280600a905b6109b56109cb565b8152602001906001900390816109ad5790505090565b6040518060e00160405280600073ffffffffffffffffffffffffffffffffffffffff1681526020016060815260200160608152602001606081526020016000815260200160008152602001600081525090565b6000600a9050919050565b600081905092915050565b6000819050919050565b600073ffffffffffffffffffffffffffffffffffffffff82169050919050565b6000610a6982610a3e565b9050919050565b610a7981610a5e565b82525050565b600081519050919050565b600082825260208201905092915050565b60005b83811015610ab9578082015181840152602081019050610a9e565b60008484015250505050565b6000601f19601f8301169050919050565b6000610ae182610a7f565b610aeb8185610a8a565b9350610afb818560208601610a9b565b610b0481610ac5565b840191505092915050565b6000819050919050565b610b2281610b0f565b82525050565b600060e083016000830151610b406000860182610a70565b5060208301518482036020860152610b588282610ad6565b91505060408301518482036040860152610b728282610ad6565b91505060608301518482036060860152610b8c8282610ad6565b9150506080830151610ba16080860182610b19565b5060a0830151610bb460a0860182610b19565b5060c0830151610bc760c0860182610b19565b508091505092915050565b6000610bde8383610b28565b905092915050565b6000602082019050919050565b6000610bfe82610a1e565b610c088185610a29565b935083602082028501610c1a85610a34565b8060005b85811015610c565784840389528151610c378582610bd2565b9450610c4283610be6565b925060208a01995050600181019050610c1e565b50829750879550505050505092915050565b60006020820190508181036000830152610c828184610bf3565b905092915050565b6000604051905090565b600080fd5b600080fd5b600080fd5b600080fd5b7f4e487b7100000000000000000000000000000000000000000000000000000000600052604160045260246000fd5b610ce082610ac5565b810181811067ffffffffffffffff82111715610cff57610cfe610ca8565b5b80604052505050565b6000610d12610c8a565b9050610d1e8282610cd7565b919050565b600067ffffffffffffffff821115610d3e57610d3d610ca8565b5b610d4782610ac5565b9050602081019050919050565b82818337600083830152505050565b6000610d76610d7184610d23565b610d08565b905082815260208101848484011115610d9257610d91610ca3565b5b610d9d848285610d54565b509392505050565b600082601f830112610dba57610db9610c9e565b5b8135610dca848260208601610d63565b91505092915050565b600060208284031215610de957610de8610c94565b5b600082013567ffffffffffffffff811115610e0757610e06610c99565b5b610e1384828501610da5565b91505092915050565b600081519050919050565b600082825260208201905092915050565b6000819050602082019050919050565b6000602082019050919050565b6000610e6082610e1c565b610e6a8185610e27565b935083602082028501610e7c85610e38565b8060005b85811015610eb85784840389528151610e998582610bd2565b9450610ea483610e48565b925060208a01995050600181019050610e80565b50829750879550505050505092915050565b60006020820190508181036000830152610ee48184610e55565b905092915050565b610ef581610b0f565b8114610f0057600080fd5b50565b600081359050610f1281610eec565b92915050565b600080600080600060a08688031215610f3457610f33610c94565b5b600086013567ffffffffffffffff811115610f5257610f51610c99565b5b610f5e88828901610da5565b955050602086013567ffffffffffffffff811115610f7f57610f7e610c99565b5b610f8b88828901610da5565b945050604086013567ffffffffffffffff811115610fac57610fab610c99565b5b610fb888828901610da5565b9350506060610fc988828901610f03565b9250506080610fda88828901610f03565b9150509295509295909350565b600082825260208201905092915050565b7f4e6f2074656e6465727320617661696c61626c65000000000000000000000000600082015250565b600061102e601483610fe7565b915061103982610ff8565b602082019050919050565b6000602082019050818103600083015261105d81611021565b9050919050565b7f4e487b7100000000000000000000000000000000000000000000000000000000600052601160045260246000fd5b600061109e82610b0f565b91506110a983610b0f565b92508282039050818111156110c1576110c0611064565b5b92915050565b7f4e487b7100000000000000000000000000000000000000000000000000000000600052603260045260246000fd5b7f4e487b7100000000000000000000000000000000000000000000000000000000600052602260045260246000fd5b6000600282049050600182168061113d57607f821691505b6020821081036111505761114f6110f6565b5b50919050565b600061116182610b0f565b91507fffffffffffffffffffffffffffffffffffffffffffffffffffffffffffffffff820361119357611192611064565b5b600182019050919050565b7f456d707479207365617263682071756572790000000000000000000000000000600082015250565b60006111d4601283610fe7565b91506111df8261119e565b602082019050919050565b60006020820190508181036000830152611203816111c7565b9050919050565b60008190508160005260206000209050919050565b60006020601f8301049050919050565b600082821b905092915050565b60006008830261126c7fffffffffffffffffffffffffffffffffffffffffffffffffffffffffffffffff8261122f565b611276868361122f565b95508019841693508086168417925050509392505050565b6000819050919050565b60006112b36112ae6112a984610b0f565b61128e565b610b0f565b9050919050565b6000819050919050565b6112cd83611298565b6112e16112d9826112ba565b84845461123c565b825550505050565b600090565b6112f66112e9565b6113018184846112c4565b505050565b5b818110156113255761131a6000826112ee565b600181019050611307565b5050565b601f82111561136a5761133b8161120a565b6113448461121f565b81016020851015611353578190505b61136761135f8561121f565b830182611306565b50505b505050565b600082821c905092915050565b600061138d6000198460080261136f565b1980831691505092915050565b60006113a6838361137c565b9150826002028217905092915050565b6113bf82610a7f565b67ffffffffffffffff8111156113d8576113d7610ca8565b5b6113e28254611125565b6113ed828285611329565b600060209050601f831160018114611420576000841561140e578287015190505b611418858261139a565b865550611480565b601f19841661142e8661120a565b60005b8281101561145657848901518255600182019150602085019450602081019050611431565b86831015611473578489015161146f601f89168261137c565b8355505b6001600288020188555050505b50505050505056fea26469706673582212205f034b9bdaaa677e19df732b6c8c1f92e05b7bf6f205b8ff79bff95cb3845bab64736f6c63430008180033",
  "linkReferences": {},
  "deployedLinkReferences": {}
}