{
  "_format": "hh-sol-artifact-1",
  "contractName": "TenderApp",
  "sourceName": "contracts/TenderApp.sol",
  "abi": [
    {
      "inputs": [],
      "stateMutability": "nonpayable",
      "type": "constructor"
    },
    {
      "anonymous": false,
      "inputs": [],
      "name": "Announce",
      "type": "event"
    },
    {
      "inputs": [
        {
          "internalType": "string",
          "name": "from",
          "type": "string"
        },
        {
          "internalType": "string",
          "name": "title",
          "type": "string"
        },
        {
          "internalType": "string",
          "name": "description",
          "type": "string"
        },
        {
          "internalType": "string",
          "name": "bidBond",
          "type": "string"
        },
        {
          "internalType": "uint256",
          "name": "prequalificationDeadline",
          "type": "uint256"
        },
        {
          "internalType": "uint256",
          "name": "bidSubmissionDeadline",
          "type": "uint256"
        },
        {
          "internalType": "uint256",
          "name": "contractSignDeadline",
          "type": "uint256"
        },
        {
          "internalType": "uint256",
          "name": "estimatedProjectCost",
          "type": "uint256"
        },
        {
          "internalType": "string",
          "name": "keyword",
          "type": "string"
        }
      ],
      "name": "createTender",
      "outputs": [],
      "stateMutability": "nonpayable",
      "type": "function"
    },
    {
      "inputs": [],
      "name": "getTenders",
      "outputs": [
        {
          "components": [
            {
              "internalType": "address",
              "name": "auther",
              "type": "address"
            },
            {
              "internalType": "string",
              "name": "from",
              "type": "string"
            },
            {
              "internalType": "string",
              "name": "title",
              "type": "string"
            },
            {
              "internalType": "string",
              "name": "description",
              "type": "string"
            },
            {
              "internalType": "string",
              "name": "bidBond",
              "type": "string"
            },
            {
              "internalType": "uint256",
              "name": "prequalificationDeadline",
              "type": "uint256"
            },
            {
              "internalType": "uint256",
              "name": "bidSubmissionDeadline",
              "type": "uint256"
            },
            {
              "internalType": "uint256",
              "name": "contractSignDeadline",
              "type": "uint256"
            },
            {
              "internalType": "uint256",
              "name": "estimatedProjectCost",
              "type": "uint256"
            },
            {
              "internalType": "string",
              "name": "keyword",
              "type": "string"
            },
            {
              "internalType": "uint256",
              "name": "timestamp",
              "type": "uint256"
            }
          ],
          "internalType": "struct TenderApp.Tender[10]",
          "name": "",
          "type": "tuple[10]"
        }
      ],
      "stateMutability": "view",
      "type": "function"
    },
    {
      "inputs": [
        {
          "internalType": "string",
          "name": "query",
          "type": "string"
        }
      ],
      "name": "searchTenders",
      "outputs": [
        {
          "components": [
            {
              "internalType": "address",
              "name": "auther",
              "type": "address"
            },
            {
              "internalType": "string",
              "name": "from",
              "type": "string"
            },
            {
              "internalType": "string",
              "name": "title",
              "type": "string"
            },
            {
              "internalType": "string",
              "name": "description",
              "type": "string"
            },
            {
              "internalType": "string",
              "name": "bidBond",
              "type": "string"
            },
            {
              "internalType": "uint256",
              "name": "prequalificationDeadline",
              "type": "uint256"
            },
            {
              "internalType": "uint256",
              "name": "bidSubmissionDeadline",
              "type": "uint256"
            },
            {
              "internalType": "uint256",
              "name": "contractSignDeadline",
              "type": "uint256"
            },
            {
              "internalType": "uint256",
              "name": "estimatedProjectCost",
              "type": "uint256"
            },
            {
              "internalType": "string",
              "name": "keyword",
              "type": "string"
            },
            {
              "internalType": "uint256",
              "name": "timestamp",
              "type": "uint256"
            }
          ],
          "internalType": "struct TenderApp.Tender[]",
          "name": "",
          "type": "tuple[]"
        }
      ],
      "stateMutability": "view",
      "type": "function"
    }
  ],
  "bytecode": "0x608060405234801561001057600080fd5b506000600181905550611881806100286000396000f3fe608060405234801561001057600080fd5b50600436106100415760003560e01c806312d0ec80146100465780634e724b49146100645780636b4548d514610080575b600080fd5b61004e6100b0565b60405161005b9190610fa4565b60405180910390f35b61007e6004803603810190610079919061113b565b6104f4565b005b61009a60048036038101906100959190611291565b6106bc565b6040516100a79190611388565b60405180910390f35b6100b8610c5b565b60008080549050116100ff576040517f08c379a00000000000000000000000000000000000000000000000000000000081526004016100f690611407565b60405180910390fd5b610107610c5b565b60005b600a8110801561011c57508060015410155b156104ec576000816001546101319190611456565b815481106101425761014161148a565b5b90600052602060002090600b0201604051806101600160405290816000820160009054906101000a900473ffffffffffffffffffffffffffffffffffffffff1673ffffffffffffffffffffffffffffffffffffffff1673ffffffffffffffffffffffffffffffffffffffff1681526020016001820180546101c2906114e8565b80601f01602080910402602001604051908101604052809291908181526020018280546101ee906114e8565b801561023b5780601f106102105761010080835404028352916020019161023b565b820191906000526020600020905b81548152906001019060200180831161021e57829003601f168201915b50505050508152602001600282018054610254906114e8565b80601f0160208091040260200160405190810160405280929190818152602001828054610280906114e8565b80156102cd5780601f106102a2576101008083540402835291602001916102cd565b820191906000526020600020905b8154815290600101906020018083116102b057829003601f168201915b505050505081526020016003820180546102e6906114e8565b80601f0160208091040260200160405190810160405280929190818152602001828054610312906114e8565b801561035f5780601f106103345761010080835404028352916020019161035f565b820191906000526020600020905b81548152906001019060200180831161034257829003601f168201915b50505050508152602001600482018054610378906114e8565b80601f01602080910402602001604051908101604052809291908181526020018280546103a4906114e8565b80156103f15780601f106103c6576101008083540402835291602001916103f1565b820191906000526020600020905b8154815290600101906020018083116103d457829003601f168201915b5050505050815260200160058201548152602001600682015481526020016007820154815260200160088201548152602001600982018054610432906114e8565b80601f016020809104026020016040519081016040528092919081815260200182805461045e906114e8565b80156104ab5780601f10610480576101008083540402835291602001916104ab565b820191906000526020600020905b81548152906001019060200180831161048e57829003601f168201915b50505050508152602001600a820154815250508282600a81106104d1576104d061148a565b5b602002018190525080806104e490611519565b91505061010a565b508091505090565b60006040518061016001604052803373ffffffffffffffffffffffffffffffffffffffff1681526020018b81526020018a81526020018981526020018881526020018781526020018681526020018581526020018481526020018381526020014281525090806001815401808255809150506001900390600052602060002090600b020160009091909190915060008201518160000160006101000a81548173ffffffffffffffffffffffffffffffffffffffff021916908373ffffffffffffffffffffffffffffffffffffffff16021790555060208201518160010190816105dd919061170d565b5060408201518160020190816105f3919061170d565b506060820151816003019081610609919061170d565b50608082015181600401908161061f919061170d565b5060a0820151816005015560c0820151816006015560e08201518160070155610100820151816008015561012082015181600901908161065f919061170d565b5061014082015181600a015550507f5991bd552d448a9d84936cae61a2c481ab36bf3361653f4a198279fa2373c11860405160405180910390a160016000805490506106ab9190611456565b600181905550505050505050505050565b60606000825111610702576040517f08c379a00000000000000000000000000000000000000000000000000000000081526004016106f99061182b565b60405180910390fd5b6000808054905067ffffffffffffffff81111561072257610721610fe4565b5b60405190808252806020026020018201604052801561075b57816020015b610748610c89565b8152602001906001900390816107405790505b5090506000805b600080549050811015610b675760008082815481106107845761078361148a565b5b90600052602060002090600b0201604051806101600160405290816000820160009054906101000a900473ffffffffffffffffffffffffffffffffffffffff1673ffffffffffffffffffffffffffffffffffffffff1673ffffffffffffffffffffffffffffffffffffffff168152602001600182018054610804906114e8565b80601f0160208091040260200160405190810160405280929190818152602001828054610830906114e8565b801561087d5780601f106108525761010080835404028352916020019161087d565b820191906000526020600020905b81548152906001019060200180831161086057829003601f168201915b50505050508152602001600282018054610896906114e8565b80601f01602080910402602001604051908101604052809291908181526020018280546108c2906114e8565b801561090f5780601f106108e45761010080835404028352916020019161090f565b820191906000526020600020905b8154815290600101906020018083116108f257829003601f168201915b50505050508152602001600382018054610928906114e8565b80601f0160208091040260200160405190810160405280929190818152602001828054610954906114e8565b80156109a15780601f10610976576101008083540402835291602001916109a1565b820191906000526020600020905b81548152906001019060200180831161098457829003601f168201915b505050505081526020016004820180546109ba906114e8565b80601f01602080910402602001604051908101604052809291908181526020018280546109e6906114e8565b8015610a335780601f10610a0857610100808354040283529160200191610a33565b820191906000526020600020905b815481529060010190602001808311610a1657829003601f168201915b5050505050815260200160058201548152602001600682015481526020016007820154815260200160088201548152602001600982018054610a74906114e8565b80601f0160208091040260200160405190810160405280929190818152602001828054610aa0906114e8565b8015610aed5780601f10610ac257610100808354040283529160200191610aed565b820191906000526020600020905b815481529060010190602001808311610ad057829003601f168201915b50505050508152602001600a820154815250509050610b10816040015187610b75565b80610b265750610b2581610120015187610b75565b5b15610b595780848481518110610b3f57610b3e61148a565b5b60200260200101819052508280610b5590611519565b9350505b508080600101915050610762565b508082528192505050919050565b60008083905060008390506000805b8351811015610c4c57828281518110610ba057610b9f61148a565b5b602001015160f81c60f81b7effffffffffffffffffffffffffffffffffffffffffffffffffffffffffffff1916848281518110610be057610bdf61148a565b5b602001015160f81c60f81b7effffffffffffffffffffffffffffffffffffffffffffffffffffffffffffff191603610c3a578180610c1d90611519565b92505082518203610c35576001945050505050610c55565b610c3f565b600091505b8080600101915050610b84565b50600093505050505b92915050565b604051806101400160405280600a905b610c73610c89565b815260200190600190039081610c6b5790505090565b604051806101600160405280600073ffffffffffffffffffffffffffffffffffffffff168152602001606081526020016060815260200160608152602001606081526020016000815260200160008152602001600081526020016000815260200160608152602001600081525090565b6000600a9050919050565b600081905092915050565b6000819050919050565b600073ffffffffffffffffffffffffffffffffffffffff82169050919050565b6000610d4482610d19565b9050919050565b610d5481610d39565b82525050565b600081519050919050565b600082825260208201905092915050565b60005b83811015610d94578082015181840152602081019050610d79565b60008484015250505050565b6000601f19601f8301169050919050565b6000610dbc82610d5a565b610dc68185610d65565b9350610dd6818560208601610d76565b610ddf81610da0565b840191505092915050565b6000819050919050565b610dfd81610dea565b82525050565b600061016083016000830151610e1c6000860182610d4b565b5060208301518482036020860152610e348282610db1565b91505060408301518482036040860152610e4e8282610db1565b91505060608301518482036060860152610e688282610db1565b91505060808301518482036080860152610e828282610db1565b91505060a0830151610e9760a0860182610df4565b5060c0830151610eaa60c0860182610df4565b5060e0830151610ebd60e0860182610df4565b50610100830151610ed2610100860182610df4565b50610120830151848203610120860152610eec8282610db1565b915050610140830151610f03610140860182610df4565b508091505092915050565b6000610f1a8383610e03565b905092915050565b6000602082019050919050565b6000610f3a82610cf9565b610f448185610d04565b935083602082028501610f5685610d0f565b8060005b85811015610f925784840389528151610f738582610f0e565b9450610f7e83610f22565b925060208a01995050600181019050610f5a565b50829750879550505050505092915050565b60006020820190508181036000830152610fbe8184610f2f565b905092915050565b6000604051905090565b600080fd5b600080fd5b600080fd5b600080fd5b7f4e487b7100000000000000000000000000000000000000000000000000000000600052604160045260246000fd5b61101c82610da0565b810181811067ffffffffffffffff8211171561103b5761103a610fe4565b5b80604052505050565b600061104e610fc6565b905061105a8282611013565b919050565b600067ffffffffffffffff82111561107a57611079610fe4565b5b61108382610da0565b9050602081019050919050565b82818337600083830152505050565b60006110b26110ad8461105f565b611044565b9050828152602081018484840111156110ce576110cd610fdf565b5b6110d9848285611090565b509392505050565b600082601f8301126110f6576110f5610fda565b5b813561110684826020860161109f565b91505092915050565b61111881610dea565b811461112357600080fd5b50565b6000813590506111358161110f565b92915050565b60008060008060008060008060006101208a8c03121561115e5761115d610fd0565b5b60008a013567ffffffffffffffff81111561117c5761117b610fd5565b5b6111888c828d016110e1565b99505060208a013567ffffffffffffffff8111156111a9576111a8610fd5565b5b6111b58c828d016110e1565b98505060408a013567ffffffffffffffff8111156111d6576111d5610fd5565b5b6111e28c828d016110e1565b97505060608a013567ffffffffffffffff81111561120357611202610fd5565b5b61120f8c828d016110e1565b96505060806112208c828d01611126565b95505060a06112318c828d01611126565b94505060c06112428c828d01611126565b93505060e06112538c828d01611126565b9250506101008a013567ffffffffffffffff81111561127557611274610fd5565b5b6112818c828d016110e1565b9150509295985092959850929598565b6000602082840312156112a7576112a6610fd0565b5b600082013567ffffffffffffffff8111156112c5576112c4610fd5565b5b6112d1848285016110e1565b91505092915050565b600081519050919050565b600082825260208201905092915050565b6000819050602082019050919050565b6000602082019050919050565b600061131e826112da565b61132881856112e5565b93508360208202850161133a856112f6565b8060005b8581101561137657848403895281516113578582610f0e565b945061136283611306565b925060208a0199505060018101905061133e565b50829750879550505050505092915050565b600060208201905081810360008301526113a28184611313565b905092915050565b600082825260208201905092915050565b7f4e6f2074656e6465727320617661696c61626c65000000000000000000000000600082015250565b60006113f16014836113aa565b91506113fc826113bb565b602082019050919050565b60006020820190508181036000830152611420816113e4565b9050919050565b7f4e487b7100000000000000000000000000000000000000000000000000000000600052601160045260246000fd5b600061146182610dea565b915061146c83610dea565b925082820390508181111561148457611483611427565b5b92915050565b7f4e487b7100000000000000000000000000000000000000000000000000000000600052603260045260246000fd5b7f4e487b7100000000000000000000000000000000000000000000000000000000600052602260045260246000fd5b6000600282049050600182168061150057607f821691505b602082108103611513576115126114b9565b5b50919050565b600061152482610dea565b91507fffffffffffffffffffffffffffffffffffffffffffffffffffffffffffffffff820361155657611555611427565b5b600182019050919050565b60008190508160005260206000209050919050565b60006020601f8301049050919050565b600082821b905092915050565b6000600883026115c37fffffffffffffffffffffffffffffffffffffffffffffffffffffffffffffffff82611586565b6115cd8683611586565b95508019841693508086168417925050509392505050565b6000819050919050565b600061160a61160561160084610dea565b6115e5565b610dea565b9050919050565b6000819050919050565b611624836115ef565b61163861163082611611565b848454611593565b825550505050565b600090565b61164d611640565b61165881848461161b565b505050565b5b8181101561167c57611671600082611645565b60018101905061165e565b5050565b601f8211156116c15761169281611561565b61169b84611576565b810160208510156116aa578190505b6116be6116b685611576565b83018261165d565b50505b505050565b600082821c905092915050565b60006116e4600019846008026116c6565b1980831691505092915050565b60006116fd83836116d3565b9150826002028217905092915050565b61171682610d5a565b67ffffffffffffffff81111561172f5761172e610fe4565b5b61173982546114e8565b611744828285611680565b600060209050601f8311600181146117775760008415611765578287015190505b61176f85826116f1565b8655506117d7565b601f19841661178586611561565b60005b828110156117ad57848901518255600182019150602085019450602081019050611788565b868310156117ca57848901516117c6601f8916826116d3565b8355505b6001600288020188555050505b505050505050565b7f456d707479207365617263682071756572790000000000000000000000000000600082015250565b60006118156012836113aa565b9150611820826117df565b602082019050919050565b6000602082019050818103600083015261184481611808565b905091905056fea264697066735822122060092589cf257d8c29f158e55e510f60c108d015f67c9a9d1f8359571b937a9064736f6c63430008180033",
  "linkReferences": {},
  "deployedLinkReferences": {}
}