{
  "_format": "hh-sol-artifact-1",
  "contractName": "TenderApp",
  "sourceName": "contracts/TenderApp.sol",
  "abi": [
    {
      "inputs": [],
      "stateMutability": "nonpayable",
      "type": "constructor"
    },
    {
      "anonymous": false,
      "inputs": [],
      "name": "Announce",
      "type": "event"
    },
    {
      "inputs": [
        {
          "internalType": "uint256",
          "name": "tenderIndex",
          "type": "uint256"
        },
        {
          "internalType": "string",
          "name": "form",
          "type": "string"
        },
        {
          "internalType": "string",
          "name": "title",
          "type": "string"
        },
        {
          "internalType": "string",
          "name": "description",
          "type": "string"
        }
      ],
      "name": "applyToTender",
      "outputs": [],
      "stateMutability": "nonpayable",
      "type": "function"
    },
    {
      "inputs": [
        {
          "internalType": "string",
          "name": "from",
          "type": "string"
        },
        {
          "internalType": "string",
          "name": "title",
          "type": "string"
        },
        {
          "internalType": "string",
          "name": "description",
          "type": "string"
        },
        {
          "internalType": "uint256",
          "name": "bidBond",
          "type": "uint256"
        },
        {
          "internalType": "uint256",
          "name": "prequalificationDeadline",
          "type": "uint256"
        },
        {
          "internalType": "uint256",
          "name": "bidSubmissionDeadline",
          "type": "uint256"
        },
        {
          "internalType": "uint256",
          "name": "contractSignDeadline",
          "type": "uint256"
        },
        {
          "internalType": "uint256",
          "name": "estimatedProjectCost",
          "type": "uint256"
        },
        {
          "internalType": "string",
          "name": "keyword",
          "type": "string"
        }
      ],
      "name": "createTender",
      "outputs": [],
      "stateMutability": "nonpayable",
      "type": "function"
    },
    {
      "inputs": [],
      "name": "getApplicantsByAuther",
      "outputs": [
        {
          "components": [
            {
              "internalType": "uint256",
              "name": "tenderId",
              "type": "uint256"
            },
            {
              "internalType": "address",
              "name": "applicant",
              "type": "address"
            },
            {
              "internalType": "string",
              "name": "form",
              "type": "string"
            },
            {
              "internalType": "string",
              "name": "title",
              "type": "string"
            },
            {
              "internalType": "string",
              "name": "description",
              "type": "string"
            },
            {
              "internalType": "bool",
              "name": "isCompleted",
              "type": "bool"
            },
            {
              "internalType": "uint256",
              "name": "totalScore",
              "type": "uint256"
            }
          ],
          "internalType": "struct TenderApp.Applicants[]",
          "name": "",
          "type": "tuple[]"
        }
      ],
      "stateMutability": "view",
      "type": "function"
    },
    {
      "inputs": [
        {
          "internalType": "uint256",
          "name": "tenderId",
          "type": "uint256"
        }
      ],
      "name": "getApplicantsByTender",
      "outputs": [
        {
          "components": [
            {
              "internalType": "uint256",
              "name": "tenderId",
              "type": "uint256"
            },
            {
              "internalType": "address",
              "name": "applicant",
              "type": "address"
            },
            {
              "internalType": "string",
              "name": "form",
              "type": "string"
            },
            {
              "internalType": "string",
              "name": "title",
              "type": "string"
            },
            {
              "internalType": "string",
              "name": "description",
              "type": "string"
            },
            {
              "internalType": "bool",
              "name": "isCompleted",
              "type": "bool"
            },
            {
              "internalType": "uint256",
              "name": "totalScore",
              "type": "uint256"
            }
          ],
          "internalType": "struct TenderApp.Applicants[]",
          "name": "",
          "type": "tuple[]"
        }
      ],
      "stateMutability": "view",
      "type": "function"
    },
    {
      "inputs": [
        {
          "internalType": "uint256",
          "name": "id",
          "type": "uint256"
        }
      ],
      "name": "getTenderById",
      "outputs": [
        {
          "components": [
            {
              "internalType": "uint256",
              "name": "id",
              "type": "uint256"
            },
            {
              "internalType": "address",
              "name": "auther",
              "type": "address"
            },
            {
              "internalType": "string",
              "name": "from",
              "type": "string"
            },
            {
              "internalType": "string",
              "name": "title",
              "type": "string"
            },
            {
              "internalType": "string",
              "name": "description",
              "type": "string"
            },
            {
              "internalType": "uint256",
              "name": "bidBond",
              "type": "uint256"
            },
            {
              "internalType": "uint256",
              "name": "prequalificationDeadline",
              "type": "uint256"
            },
            {
              "internalType": "uint256",
              "name": "bidSubmissionDeadline",
              "type": "uint256"
            },
            {
              "internalType": "uint256",
              "name": "contractSignDeadline",
              "type": "uint256"
            },
            {
              "internalType": "uint256",
              "name": "estimatedProjectCost",
              "type": "uint256"
            },
            {
              "internalType": "string",
              "name": "keyword",
              "type": "string"
            },
            {
              "internalType": "uint256",
              "name": "timestamp",
              "type": "uint256"
            }
          ],
          "internalType": "struct TenderApp.Tender",
          "name": "",
          "type": "tuple"
        }
      ],
      "stateMutability": "view",
      "type": "function"
    },
    {
      "inputs": [],
      "name": "getTenders",
      "outputs": [
        {
          "components": [
            {
              "internalType": "uint256",
              "name": "id",
              "type": "uint256"
            },
            {
              "internalType": "address",
              "name": "auther",
              "type": "address"
            },
            {
              "internalType": "string",
              "name": "from",
              "type": "string"
            },
            {
              "internalType": "string",
              "name": "title",
              "type": "string"
            },
            {
              "internalType": "string",
              "name": "description",
              "type": "string"
            },
            {
              "internalType": "uint256",
              "name": "bidBond",
              "type": "uint256"
            },
            {
              "internalType": "uint256",
              "name": "prequalificationDeadline",
              "type": "uint256"
            },
            {
              "internalType": "uint256",
              "name": "bidSubmissionDeadline",
              "type": "uint256"
            },
            {
              "internalType": "uint256",
              "name": "contractSignDeadline",
              "type": "uint256"
            },
            {
              "internalType": "uint256",
              "name": "estimatedProjectCost",
              "type": "uint256"
            },
            {
              "internalType": "string",
              "name": "keyword",
              "type": "string"
            },
            {
              "internalType": "uint256",
              "name": "timestamp",
              "type": "uint256"
            }
          ],
          "internalType": "struct TenderApp.Tender[10]",
          "name": "",
          "type": "tuple[10]"
        }
      ],
      "stateMutability": "view",
      "type": "function"
    },
    {
      "inputs": [],
      "name": "getTendersByApplicant",
      "outputs": [
        {
          "components": [
            {
              "internalType": "uint256",
              "name": "id",
              "type": "uint256"
            },
            {
              "internalType": "address",
              "name": "auther",
              "type": "address"
            },
            {
              "internalType": "string",
              "name": "from",
              "type": "string"
            },
            {
              "internalType": "string",
              "name": "title",
              "type": "string"
            },
            {
              "internalType": "string",
              "name": "description",
              "type": "string"
            },
            {
              "internalType": "uint256",
              "name": "bidBond",
              "type": "uint256"
            },
            {
              "internalType": "uint256",
              "name": "prequalificationDeadline",
              "type": "uint256"
            },
            {
              "internalType": "uint256",
              "name": "bidSubmissionDeadline",
              "type": "uint256"
            },
            {
              "internalType": "uint256",
              "name": "contractSignDeadline",
              "type": "uint256"
            },
            {
              "internalType": "uint256",
              "name": "estimatedProjectCost",
              "type": "uint256"
            },
            {
              "internalType": "string",
              "name": "keyword",
              "type": "string"
            },
            {
              "internalType": "uint256",
              "name": "timestamp",
              "type": "uint256"
            }
          ],
          "internalType": "struct TenderApp.Tender[]",
          "name": "",
          "type": "tuple[]"
        }
      ],
      "stateMutability": "view",
      "type": "function"
    },
    {
      "inputs": [],
      "name": "getTendersByAuthor",
      "outputs": [
        {
          "components": [
            {
              "internalType": "uint256",
              "name": "id",
              "type": "uint256"
            },
            {
              "internalType": "address",
              "name": "auther",
              "type": "address"
            },
            {
              "internalType": "string",
              "name": "from",
              "type": "string"
            },
            {
              "internalType": "string",
              "name": "title",
              "type": "string"
            },
            {
              "internalType": "string",
              "name": "description",
              "type": "string"
            },
            {
              "internalType": "uint256",
              "name": "bidBond",
              "type": "uint256"
            },
            {
              "internalType": "uint256",
              "name": "prequalificationDeadline",
              "type": "uint256"
            },
            {
              "internalType": "uint256",
              "name": "bidSubmissionDeadline",
              "type": "uint256"
            },
            {
              "internalType": "uint256",
              "name": "contractSignDeadline",
              "type": "uint256"
            },
            {
              "internalType": "uint256",
              "name": "estimatedProjectCost",
              "type": "uint256"
            },
            {
              "internalType": "string",
              "name": "keyword",
              "type": "string"
            },
            {
              "internalType": "uint256",
              "name": "timestamp",
              "type": "uint256"
            }
          ],
          "internalType": "struct TenderApp.Tender[]",
          "name": "",
          "type": "tuple[]"
        }
      ],
      "stateMutability": "view",
      "type": "function"
    },
    {
      "inputs": [
        {
          "internalType": "string",
          "name": "query",
          "type": "string"
        }
      ],
      "name": "searchTenders",
      "outputs": [
        {
          "components": [
            {
              "internalType": "uint256",
              "name": "id",
              "type": "uint256"
            },
            {
              "internalType": "address",
              "name": "auther",
              "type": "address"
            },
            {
              "internalType": "string",
              "name": "from",
              "type": "string"
            },
            {
              "internalType": "string",
              "name": "title",
              "type": "string"
            },
            {
              "internalType": "string",
              "name": "description",
              "type": "string"
            },
            {
              "internalType": "uint256",
              "name": "bidBond",
              "type": "uint256"
            },
            {
              "internalType": "uint256",
              "name": "prequalificationDeadline",
              "type": "uint256"
            },
            {
              "internalType": "uint256",
              "name": "bidSubmissionDeadline",
              "type": "uint256"
            },
            {
              "internalType": "uint256",
              "name": "contractSignDeadline",
              "type": "uint256"
            },
            {
              "internalType": "uint256",
              "name": "estimatedProjectCost",
              "type": "uint256"
            },
            {
              "internalType": "string",
              "name": "keyword",
              "type": "string"
            },
            {
              "internalType": "uint256",
              "name": "timestamp",
              "type": "uint256"
            }
          ],
          "internalType": "struct TenderApp.Tender[]",
          "name": "",
          "type": "tuple[]"
        }
      ],
      "stateMutability": "view",
      "type": "function"
    }
  ],
  "bytecode": "0x608060405234801561001057600080fd5b50600060028190555060006003819055506133e4806100306000396000f3fe608060405234801561001057600080fd5b50600436106100935760003560e01c806384663d9d1161006657806384663d9d14610134578063a5ea7b2514610152578063e7ddf85e1461016e578063ed39675f1461018c578063eee1f290146101bc57610093565b806303a8b4881461009857806312d0ec80146100c85780636b4548d5146100e65780636ca0ff2914610116575b600080fd5b6100b260048036038101906100ad919061234a565b6101d8565b6040516100bf91906125de565b60405180910390f35b6100d0610509565b6040516100dd91906127cf565b60405180910390f35b61010060048036038101906100fb9190612926565b610907565b60405161010d9190612a1d565b60405180910390f35b61011e610d42565b60405161012b91906125de565b60405180910390f35b61013c6110d8565b6040516101499190612a1d565b60405180910390f35b61016c60048036038101906101679190612a3f565b61153d565b005b610176611709565b6040516101839190612a1d565b60405180910390f35b6101a660048036038101906101a1919061234a565b611b0c565b6040516101b39190612c92565b60405180910390f35b6101d660048036038101906101d19190612cb4565b611e74565b005b6060600060018054905067ffffffffffffffff8111156101fb576101fa6127fb565b5b60405190808252806020026020018201604052801561023457816020015b610221612206565b8152602001906001900390816102195790505b5090506000805b6001805490508110156104fb5760006001828154811061025e5761025d612d6f565b5b90600052602060002090600702016040518060e0016040529081600082015481526020016001820160009054906101000a900473ffffffffffffffffffffffffffffffffffffffff1673ffffffffffffffffffffffffffffffffffffffff1673ffffffffffffffffffffffffffffffffffffffff1681526020016002820180546102e790612dcd565b80601f016020809104026020016040519081016040528092919081815260200182805461031390612dcd565b80156103605780601f1061033557610100808354040283529160200191610360565b820191906000526020600020905b81548152906001019060200180831161034357829003601f168201915b5050505050815260200160038201805461037990612dcd565b80601f01602080910402602001604051908101604052809291908181526020018280546103a590612dcd565b80156103f25780601f106103c7576101008083540402835291602001916103f2565b820191906000526020600020905b8154815290600101906020018083116103d557829003601f168201915b5050505050815260200160048201805461040b90612dcd565b80601f016020809104026020016040519081016040528092919081815260200182805461043790612dcd565b80156104845780601f1061045957610100808354040283529160200191610484565b820191906000526020600020905b81548152906001019060200180831161046757829003601f168201915b505050505081526020016005820160009054906101000a900460ff161515151581526020016006820154815250509050858160000151036104ed57808484815181106104d3576104d2612d6f565b5b602002602001018190525082806104e990612e2d565b9350505b50808060010191505061023b565b508082528192505050919050565b61051161225b565b6000808054905011610558576040517f08c379a000000000000000000000000000000000000000000000000000000000815260040161054f90612ed2565b60405180910390fd5b61056061225b565b6000600a60008054905011610576576000610589565b600a6000805490506105889190612ef2565b5b905060005b600a8110156108fe5760008054905081836105a99190612f26565b10156108ec57600081836105bd9190612f26565b815481106105ce576105cd612d6f565b5b90600052602060002090600c020160405180610180016040529081600082015481526020016001820160009054906101000a900473ffffffffffffffffffffffffffffffffffffffff1673ffffffffffffffffffffffffffffffffffffffff1673ffffffffffffffffffffffffffffffffffffffff16815260200160028201805461065890612dcd565b80601f016020809104026020016040519081016040528092919081815260200182805461068490612dcd565b80156106d15780601f106106a6576101008083540402835291602001916106d1565b820191906000526020600020905b8154815290600101906020018083116106b457829003601f168201915b505050505081526020016003820180546106ea90612dcd565b80601f016020809104026020016040519081016040528092919081815260200182805461071690612dcd565b80156107635780601f1061073857610100808354040283529160200191610763565b820191906000526020600020905b81548152906001019060200180831161074657829003601f168201915b5050505050815260200160048201805461077c90612dcd565b80601f01602080910402602001604051908101604052809291908181526020018280546107a890612dcd565b80156107f55780601f106107ca576101008083540402835291602001916107f5565b820191906000526020600020905b8154815290600101906020018083116107d857829003601f168201915b505050505081526020016005820154815260200160068201548152602001600782015481526020016008820154815260200160098201548152602001600a8201805461084090612dcd565b80601f016020809104026020016040519081016040528092919081815260200182805461086c90612dcd565b80156108b95780601f1061088e576101008083540402835291602001916108b9565b820191906000526020600020905b81548152906001019060200180831161089c57829003601f168201915b50505050508152602001600b820154815250508382600a81106108df576108de612d6f565b5b60200201819052506108f1565b6108fe565b808060010191505061058e565b50819250505090565b6060600082511161094d576040517f08c379a000000000000000000000000000000000000000000000000000000000815260040161094490612fa6565b60405180910390fd5b6000808054905067ffffffffffffffff81111561096d5761096c6127fb565b5b6040519080825280602002602001820160405280156109a657816020015b610993612289565b81526020019060019003908161098b5790505b5090506000805b600080549050811015610d345760008082815481106109cf576109ce612d6f565b5b90600052602060002090600c020160405180610180016040529081600082015481526020016001820160009054906101000a900473ffffffffffffffffffffffffffffffffffffffff1673ffffffffffffffffffffffffffffffffffffffff1673ffffffffffffffffffffffffffffffffffffffff168152602001600282018054610a5990612dcd565b80601f0160208091040260200160405190810160405280929190818152602001828054610a8590612dcd565b8015610ad25780601f10610aa757610100808354040283529160200191610ad2565b820191906000526020600020905b815481529060010190602001808311610ab557829003601f168201915b50505050508152602001600382018054610aeb90612dcd565b80601f0160208091040260200160405190810160405280929190818152602001828054610b1790612dcd565b8015610b645780601f10610b3957610100808354040283529160200191610b64565b820191906000526020600020905b815481529060010190602001808311610b4757829003601f168201915b50505050508152602001600482018054610b7d90612dcd565b80601f0160208091040260200160405190810160405280929190818152602001828054610ba990612dcd565b8015610bf65780601f10610bcb57610100808354040283529160200191610bf6565b820191906000526020600020905b815481529060010190602001808311610bd957829003601f168201915b505050505081526020016005820154815260200160068201548152602001600782015481526020016008820154815260200160098201548152602001600a82018054610c4190612dcd565b80601f0160208091040260200160405190810160405280929190818152602001828054610c6d90612dcd565b8015610cba5780601f10610c8f57610100808354040283529160200191610cba565b820191906000526020600020905b815481529060010190602001808311610c9d57829003601f168201915b50505050508152602001600b820154815250509050610cdd816060015187612120565b80610cf35750610cf281610140015187612120565b5b15610d265780848481518110610d0c57610d0b612d6f565b5b60200260200101819052508280610d2290612e2d565b9350505b5080806001019150506109ad565b508082528192505050919050565b6060600060018054905067ffffffffffffffff811115610d6557610d646127fb565b5b604051908082528060200260200182016040528015610d9e57816020015b610d8b612206565b815260200190600190039081610d835790505b5090506000805b6001805490508110156110cc573373ffffffffffffffffffffffffffffffffffffffff1660018281548110610ddd57610ddc612d6f565b5b906000526020600020906007020160010160009054906101000a900473ffffffffffffffffffffffffffffffffffffffff1673ffffffffffffffffffffffffffffffffffffffff16036110bf5760018181548110610e3e57610e3d612d6f565b5b90600052602060002090600702016040518060e0016040529081600082015481526020016001820160009054906101000a900473ffffffffffffffffffffffffffffffffffffffff1673ffffffffffffffffffffffffffffffffffffffff1673ffffffffffffffffffffffffffffffffffffffff168152602001600282018054610ec790612dcd565b80601f0160208091040260200160405190810160405280929190818152602001828054610ef390612dcd565b8015610f405780601f10610f1557610100808354040283529160200191610f40565b820191906000526020600020905b815481529060010190602001808311610f2357829003601f168201915b50505050508152602001600382018054610f5990612dcd565b80601f0160208091040260200160405190810160405280929190818152602001828054610f8590612dcd565b8015610fd25780601f10610fa757610100808354040283529160200191610fd2565b820191906000526020600020905b815481529060010190602001808311610fb557829003601f168201915b50505050508152602001600482018054610feb90612dcd565b80601f016020809104026020016040519081016040528092919081815260200182805461101790612dcd565b80156110645780601f1061103957610100808354040283529160200191611064565b820191906000526020600020905b81548152906001019060200180831161104757829003601f168201915b505050505081526020016005820160009054906101000a900460ff161515151581526020016006820154815250508383815181106110a5576110a4612d6f565b5b602002602001018190525081806110bb90612e2d565b9250505b8080600101915050610da5565b50808252819250505090565b6060600060018054905067ffffffffffffffff8111156110fb576110fa6127fb565b5b60405190808252806020026020018201604052801561113457816020015b611121612289565b8152602001906001900390816111195790505b5090506000805b600180549050811015611531573373ffffffffffffffffffffffffffffffffffffffff166001828154811061117357611172612d6f565b5b906000526020600020906007020160010160009054906101000a900473ffffffffffffffffffffffffffffffffffffffff1673ffffffffffffffffffffffffffffffffffffffff1603611524576000600182815481106111d6576111d5612d6f565b5b906000526020600020906007020160000154815481106111f9576111f8612d6f565b5b90600052602060002090600c020160405180610180016040529081600082015481526020016001820160009054906101000a900473ffffffffffffffffffffffffffffffffffffffff1673ffffffffffffffffffffffffffffffffffffffff1673ffffffffffffffffffffffffffffffffffffffff16815260200160028201805461128390612dcd565b80601f01602080910402602001604051908101604052809291908181526020018280546112af90612dcd565b80156112fc5780601f106112d1576101008083540402835291602001916112fc565b820191906000526020600020905b8154815290600101906020018083116112df57829003601f168201915b5050505050815260200160038201805461131590612dcd565b80601f016020809104026020016040519081016040528092919081815260200182805461134190612dcd565b801561138e5780601f106113635761010080835404028352916020019161138e565b820191906000526020600020905b81548152906001019060200180831161137157829003601f168201915b505050505081526020016004820180546113a790612dcd565b80601f01602080910402602001604051908101604052809291908181526020018280546113d390612dcd565b80156114205780601f106113f557610100808354040283529160200191611420565b820191906000526020600020905b81548152906001019060200180831161140357829003601f168201915b505050505081526020016005820154815260200160068201548152602001600782015481526020016008820154815260200160098201548152602001600a8201805461146b90612dcd565b80601f016020809104026020016040519081016040528092919081815260200182805461149790612dcd565b80156114e45780601f106114b9576101008083540402835291602001916114e4565b820191906000526020600020905b8154815290600101906020018083116114c757829003601f168201915b50505050508152602001600b8201548152505083838151811061150a57611509612d6f565b5b6020026020010181905250818061152090612e2d565b9250505b808060010191505061113b565b50808252819250505090565b600060405180610180016040528060025481526020013373ffffffffffffffffffffffffffffffffffffffff1681526020018b81526020018a81526020018981526020018881526020018781526020018681526020018581526020018481526020018381526020014281525090806001815401808255809150506001900390600052602060002090600c02016000909190919091506000820151816000015560208201518160010160006101000a81548173ffffffffffffffffffffffffffffffffffffffff021916908373ffffffffffffffffffffffffffffffffffffffff16021790555060408201518160020190816116389190613172565b50606082015181600301908161164e9190613172565b5060808201518160040190816116649190613172565b5060a0820151816005015560c0820151816006015560e082015181600701556101008201518160080155610120820151816009015561014082015181600a0190816116af9190613172565b5061016082015181600b015550507f5991bd552d448a9d84936cae61a2c481ab36bf3361653f4a198279fa2373c11860405160405180910390a160016002546116f89190612f26565b600281905550505050505050505050565b60606000808054905067ffffffffffffffff81111561172b5761172a6127fb565b5b60405190808252806020026020018201604052801561176457816020015b611751612289565b8152602001906001900390816117495790505b5090506000805b600080549050811015611b0057600080828154811061178d5761178c612d6f565b5b90600052602060002090600c020160405180610180016040529081600082015481526020016001820160009054906101000a900473ffffffffffffffffffffffffffffffffffffffff1673ffffffffffffffffffffffffffffffffffffffff1673ffffffffffffffffffffffffffffffffffffffff16815260200160028201805461181790612dcd565b80601f016020809104026020016040519081016040528092919081815260200182805461184390612dcd565b80156118905780601f1061186557610100808354040283529160200191611890565b820191906000526020600020905b81548152906001019060200180831161187357829003601f168201915b505050505081526020016003820180546118a990612dcd565b80601f01602080910402602001604051908101604052809291908181526020018280546118d590612dcd565b80156119225780601f106118f757610100808354040283529160200191611922565b820191906000526020600020905b81548152906001019060200180831161190557829003601f168201915b5050505050815260200160048201805461193b90612dcd565b80601f016020809104026020016040519081016040528092919081815260200182805461196790612dcd565b80156119b45780601f10611989576101008083540402835291602001916119b4565b820191906000526020600020905b81548152906001019060200180831161199757829003601f168201915b505050505081526020016005820154815260200160068201548152602001600782015481526020016008820154815260200160098201548152602001600a820180546119ff90612dcd565b80601f0160208091040260200160405190810160405280929190818152602001828054611a2b90612dcd565b8015611a785780601f10611a4d57610100808354040283529160200191611a78565b820191906000526020600020905b815481529060010190602001808311611a5b57829003601f168201915b50505050508152602001600b8201548152505090503373ffffffffffffffffffffffffffffffffffffffff16816020015173ffffffffffffffffffffffffffffffffffffffff1603611af25780848481518110611ad857611ad7612d6f565b5b60200260200101819052508280611aee90612e2d565b9350505b50808060010191505061176b565b50808252819250505090565b611b14612289565b6000805490508210611b5b576040517f08c379a0000000000000000000000000000000000000000000000000000000008152600401611b5290613290565b60405180910390fd5b60008281548110611b6f57611b6e612d6f565b5b90600052602060002090600c020160405180610180016040529081600082015481526020016001820160009054906101000a900473ffffffffffffffffffffffffffffffffffffffff1673ffffffffffffffffffffffffffffffffffffffff1673ffffffffffffffffffffffffffffffffffffffff168152602001600282018054611bf990612dcd565b80601f0160208091040260200160405190810160405280929190818152602001828054611c2590612dcd565b8015611c725780601f10611c4757610100808354040283529160200191611c72565b820191906000526020600020905b815481529060010190602001808311611c5557829003601f168201915b50505050508152602001600382018054611c8b90612dcd565b80601f0160208091040260200160405190810160405280929190818152602001828054611cb790612dcd565b8015611d045780601f10611cd957610100808354040283529160200191611d04565b820191906000526020600020905b815481529060010190602001808311611ce757829003601f168201915b50505050508152602001600482018054611d1d90612dcd565b80601f0160208091040260200160405190810160405280929190818152602001828054611d4990612dcd565b8015611d965780601f10611d6b57610100808354040283529160200191611d96565b820191906000526020600020905b815481529060010190602001808311611d7957829003601f168201915b505050505081526020016005820154815260200160068201548152602001600782015481526020016008820154815260200160098201548152602001600a82018054611de190612dcd565b80601f0160208091040260200160405190810160405280929190818152602001828054611e0d90612dcd565b8015611e5a5780601f10611e2f57610100808354040283529160200191611e5a565b820191906000526020600020905b815481529060010190602001808311611e3d57829003601f168201915b50505050508152602001600b820154815250509050919050565b6000805490508410611ebb576040517f08c379a0000000000000000000000000000000000000000000000000000000008152600401611eb2906132fc565b60405180910390fd5b6000808581548110611ed057611ecf612d6f565b5b90600052602060002090600c0201905060005b600180549050811015611fe1578560018281548110611f0557611f04612d6f565b5b906000526020600020906007020160000154148015611f9457503373ffffffffffffffffffffffffffffffffffffffff1660018281548110611f4a57611f49612d6f565b5b906000526020600020906007020160010160009054906101000a900473ffffffffffffffffffffffffffffffffffffffff1673ffffffffffffffffffffffffffffffffffffffff16145b15611fd4576040517f08c379a0000000000000000000000000000000000000000000000000000000008152600401611fcb9061338e565b60405180910390fd5b8080600101915050611ee3565b5060016040518060e001604052808781526020013373ffffffffffffffffffffffffffffffffffffffff168152602001868152602001858152602001848152602001600015158152602001600081525090806001815401808255809150506001900390600052602060002090600702016000909190919091506000820151816000015560208201518160010160006101000a81548173ffffffffffffffffffffffffffffffffffffffff021916908373ffffffffffffffffffffffffffffffffffffffff16021790555060408201518160020190816120c09190613172565b5060608201518160030190816120d69190613172565b5060808201518160040190816120ec9190613172565b5060a08201518160050160006101000a81548160ff02191690831515021790555060c0820151816006015550505050505050565b60008083905060008390506000805b83518110156121f75782828151811061214b5761214a612d6f565b5b602001015160f81c60f81b7effffffffffffffffffffffffffffffffffffffffffffffffffffffffffffff191684828151811061218b5761218a612d6f565b5b602001015160f81c60f81b7effffffffffffffffffffffffffffffffffffffffffffffffffffffffffffff1916036121e55781806121c890612e2d565b925050825182036121e0576001945050505050612200565b6121ea565b600091505b808060010191505061212f565b50600093505050505b92915050565b6040518060e0016040528060008152602001600073ffffffffffffffffffffffffffffffffffffffff168152602001606081526020016060815260200160608152602001600015158152602001600081525090565b604051806101400160405280600a905b612273612289565b81526020019060019003908161226b5790505090565b60405180610180016040528060008152602001600073ffffffffffffffffffffffffffffffffffffffff168152602001606081526020016060815260200160608152602001600081526020016000815260200160008152602001600081526020016000815260200160608152602001600081525090565b6000604051905090565b600080fd5b600080fd5b6000819050919050565b61232781612314565b811461233257600080fd5b50565b6000813590506123448161231e565b92915050565b6000602082840312156123605761235f61230a565b5b600061236e84828501612335565b91505092915050565b600081519050919050565b600082825260208201905092915050565b6000819050602082019050919050565b6123ac81612314565b82525050565b600073ffffffffffffffffffffffffffffffffffffffff82169050919050565b60006123dd826123b2565b9050919050565b6123ed816123d2565b82525050565b600081519050919050565b600082825260208201905092915050565b60005b8381101561242d578082015181840152602081019050612412565b60008484015250505050565b6000601f19601f8301169050919050565b6000612455826123f3565b61245f81856123fe565b935061246f81856020860161240f565b61247881612439565b840191505092915050565b60008115159050919050565b61249881612483565b82525050565b600060e0830160008301516124b660008601826123a3565b5060208301516124c960208601826123e4565b50604083015184820360408601526124e1828261244a565b915050606083015184820360608601526124fb828261244a565b91505060808301518482036080860152612515828261244a565b91505060a083015161252a60a086018261248f565b5060c083015161253d60c08601826123a3565b508091505092915050565b6000612554838361249e565b905092915050565b6000602082019050919050565b600061257482612377565b61257e8185612382565b93508360208202850161259085612393565b8060005b858110156125cc57848403895281516125ad8582612548565b94506125b88361255c565b925060208a01995050600181019050612594565b50829750879550505050505092915050565b600060208201905081810360008301526125f88184612569565b905092915050565b6000600a9050919050565b600081905092915050565b6000819050919050565b60006101808301600083015161263960008601826123a3565b50602083015161264c60208601826123e4565b5060408301518482036040860152612664828261244a565b9150506060830151848203606086015261267e828261244a565b91505060808301518482036080860152612698828261244a565b91505060a08301516126ad60a08601826123a3565b5060c08301516126c060c08601826123a3565b5060e08301516126d360e08601826123a3565b506101008301516126e86101008601826123a3565b506101208301516126fd6101208601826123a3565b50610140830151848203610140860152612717828261244a565b91505061016083015161272e6101608601826123a3565b508091505092915050565b60006127458383612620565b905092915050565b6000602082019050919050565b600061276582612600565b61276f818561260b565b93508360208202850161278185612616565b8060005b858110156127bd578484038952815161279e8582612739565b94506127a98361274d565b925060208a01995050600181019050612785565b50829750879550505050505092915050565b600060208201905081810360008301526127e9818461275a565b905092915050565b600080fd5b600080fd5b7f4e487b7100000000000000000000000000000000000000000000000000000000600052604160045260246000fd5b61283382612439565b810181811067ffffffffffffffff82111715612852576128516127fb565b5b80604052505050565b6000612865612300565b9050612871828261282a565b919050565b600067ffffffffffffffff821115612891576128906127fb565b5b61289a82612439565b9050602081019050919050565b82818337600083830152505050565b60006128c96128c484612876565b61285b565b9050828152602081018484840111156128e5576128e46127f6565b5b6128f08482856128a7565b509392505050565b600082601f83011261290d5761290c6127f1565b5b813561291d8482602086016128b6565b91505092915050565b60006020828403121561293c5761293b61230a565b5b600082013567ffffffffffffffff81111561295a5761295961230f565b5b612966848285016128f8565b91505092915050565b600081519050919050565b600082825260208201905092915050565b6000819050602082019050919050565b6000602082019050919050565b60006129b38261296f565b6129bd818561297a565b9350836020820285016129cf8561298b565b8060005b85811015612a0b57848403895281516129ec8582612739565b94506129f78361299b565b925060208a019950506001810190506129d3565b50829750879550505050505092915050565b60006020820190508181036000830152612a3781846129a8565b905092915050565b60008060008060008060008060006101208a8c031215612a6257612a6161230a565b5b60008a013567ffffffffffffffff811115612a8057612a7f61230f565b5b612a8c8c828d016128f8565b99505060208a013567ffffffffffffffff811115612aad57612aac61230f565b5b612ab98c828d016128f8565b98505060408a013567ffffffffffffffff811115612ada57612ad961230f565b5b612ae68c828d016128f8565b9750506060612af78c828d01612335565b9650506080612b088c828d01612335565b95505060a0612b198c828d01612335565b94505060c0612b2a8c828d01612335565b93505060e0612b3b8c828d01612335565b9250506101008a013567ffffffffffffffff811115612b5d57612b5c61230f565b5b612b698c828d016128f8565b9150509295985092959850929598565b600061018083016000830151612b9260008601826123a3565b506020830151612ba560208601826123e4565b5060408301518482036040860152612bbd828261244a565b91505060608301518482036060860152612bd7828261244a565b91505060808301518482036080860152612bf1828261244a565b91505060a0830151612c0660a08601826123a3565b5060c0830151612c1960c08601826123a3565b5060e0830151612c2c60e08601826123a3565b50610100830151612c416101008601826123a3565b50610120830151612c566101208601826123a3565b50610140830151848203610140860152612c70828261244a565b915050610160830151612c876101608601826123a3565b508091505092915050565b60006020820190508181036000830152612cac8184612b79565b905092915050565b60008060008060808587031215612cce57612ccd61230a565b5b6000612cdc87828801612335565b945050602085013567ffffffffffffffff811115612cfd57612cfc61230f565b5b612d09878288016128f8565b935050604085013567ffffffffffffffff811115612d2a57612d2961230f565b5b612d36878288016128f8565b925050606085013567ffffffffffffffff811115612d5757612d5661230f565b5b612d63878288016128f8565b91505092959194509250565b7f4e487b7100000000000000000000000000000000000000000000000000000000600052603260045260246000fd5b7f4e487b7100000000000000000000000000000000000000000000000000000000600052602260045260246000fd5b60006002820490506001821680612de557607f821691505b602082108103612df857612df7612d9e565b5b50919050565b7f4e487b7100000000000000000000000000000000000000000000000000000000600052601160045260246000fd5b6000612e3882612314565b91507fffffffffffffffffffffffffffffffffffffffffffffffffffffffffffffffff8203612e6a57612e69612dfe565b5b600182019050919050565b600082825260208201905092915050565b7f4e6f2074656e6465727320617661696c61626c65000000000000000000000000600082015250565b6000612ebc601483612e75565b9150612ec782612e86565b602082019050919050565b60006020820190508181036000830152612eeb81612eaf565b9050919050565b6000612efd82612314565b9150612f0883612314565b9250828203905081811115612f2057612f1f612dfe565b5b92915050565b6000612f3182612314565b9150612f3c83612314565b9250828201905080821115612f5457612f53612dfe565b5b92915050565b7f456d707479207365617263682071756572790000000000000000000000000000600082015250565b6000612f90601283612e75565b9150612f9b82612f5a565b602082019050919050565b60006020820190508181036000830152612fbf81612f83565b9050919050565b60008190508160005260206000209050919050565b60006020601f8301049050919050565b600082821b905092915050565b6000600883026130287fffffffffffffffffffffffffffffffffffffffffffffffffffffffffffffffff82612feb565b6130328683612feb565b95508019841693508086168417925050509392505050565b6000819050919050565b600061306f61306a61306584612314565b61304a565b612314565b9050919050565b6000819050919050565b61308983613054565b61309d61309582613076565b848454612ff8565b825550505050565b600090565b6130b26130a5565b6130bd818484613080565b505050565b5b818110156130e1576130d66000826130aa565b6001810190506130c3565b5050565b601f821115613126576130f781612fc6565b61310084612fdb565b8101602085101561310f578190505b61312361311b85612fdb565b8301826130c2565b50505b505050565b600082821c905092915050565b60006131496000198460080261312b565b1980831691505092915050565b60006131628383613138565b9150826002028217905092915050565b61317b826123f3565b67ffffffffffffffff811115613194576131936127fb565b5b61319e8254612dcd565b6131a98282856130e5565b600060209050601f8311600181146131dc57600084156131ca578287015190505b6131d48582613156565b86555061323c565b601f1984166131ea86612fc6565b60005b82811015613212578489015182556001820191506020850194506020810190506131ed565b8683101561322f578489015161322b601f891682613138565b8355505b6001600288020188555050505b505050505050565b7f496e76616c69642074656e646572204944000000000000000000000000000000600082015250565b600061327a601183612e75565b915061328582613244565b602082019050919050565b600060208201905081810360008301526132a98161326d565b9050919050565b7f496e76616c69642074656e64657220696e646578000000000000000000000000600082015250565b60006132e6601483612e75565b91506132f1826132b0565b602082019050919050565b60006020820190508181036000830152613315816132d9565b9050919050565b7f596f75206861766520616c7265616479206170706c69656420746f207468697360008201527f2074656e64657200000000000000000000000000000000000000000000000000602082015250565b6000613378602783612e75565b91506133838261331c565b604082019050919050565b600060208201905081810360008301526133a78161336b565b905091905056fea26469706673582212208b9361d0b354e09a9a8284470a1ac4c4c9806f1885e79384da1ca741b704522364736f6c63430008180033",
  "linkReferences": {},
  "deployedLinkReferences": {}
}