{
  "_format": "hh-sol-artifact-1",
  "contractName": "TenderApp",
  "sourceName": "contracts/TenderApp.sol",
  "abi": [
    {
      "inputs": [],
      "stateMutability": "nonpayable",
      "type": "constructor"
    },
    {
      "anonymous": false,
      "inputs": [],
      "name": "Announce",
      "type": "event"
    },
    {
      "inputs": [
        {
          "internalType": "uint256",
          "name": "tenderIndex",
          "type": "uint256"
        },
        {
          "internalType": "string",
          "name": "form",
          "type": "string"
        },
        {
          "internalType": "string",
          "name": "title",
          "type": "string"
        },
        {
          "internalType": "string",
          "name": "description",
          "type": "string"
        }
      ],
      "name": "applyToTender",
      "outputs": [],
      "stateMutability": "payable",
      "type": "function"
    },
    {
      "inputs": [
        {
          "internalType": "string",
          "name": "from",
          "type": "string"
        },
        {
          "internalType": "string",
          "name": "title",
          "type": "string"
        },
        {
          "internalType": "string",
          "name": "description",
          "type": "string"
        },
        {
          "internalType": "uint256",
          "name": "bidBond",
          "type": "uint256"
        },
        {
          "internalType": "uint256",
          "name": "prequalificationDeadline",
          "type": "uint256"
        },
        {
          "internalType": "uint256",
          "name": "bidSubmissionDeadline",
          "type": "uint256"
        },
        {
          "internalType": "uint256",
          "name": "contractSignDeadline",
          "type": "uint256"
        },
        {
          "internalType": "uint256",
          "name": "estimatedProjectCost",
          "type": "uint256"
        },
        {
          "internalType": "string",
          "name": "keyword",
          "type": "string"
        }
      ],
      "name": "createTender",
      "outputs": [],
      "stateMutability": "nonpayable",
      "type": "function"
    },
    {
      "inputs": [
        {
          "internalType": "uint256",
          "name": "tenderId",
          "type": "uint256"
        }
      ],
      "name": "getApplicantsByTender",
      "outputs": [
        {
          "components": [
            {
              "internalType": "uint256",
              "name": "tenderId",
              "type": "uint256"
            },
            {
              "internalType": "address",
              "name": "applicant",
              "type": "address"
            },
            {
              "internalType": "string",
              "name": "form",
              "type": "string"
            },
            {
              "internalType": "string",
              "name": "title",
              "type": "string"
            },
            {
              "internalType": "string",
              "name": "description",
              "type": "string"
            }
          ],
          "internalType": "struct TenderApp.Applicants[]",
          "name": "",
          "type": "tuple[]"
        }
      ],
      "stateMutability": "view",
      "type": "function"
    },
    {
      "inputs": [
        {
          "internalType": "uint256",
          "name": "id",
          "type": "uint256"
        }
      ],
      "name": "getTenderById",
      "outputs": [
        {
          "components": [
            {
              "internalType": "uint256",
              "name": "id",
              "type": "uint256"
            },
            {
              "internalType": "address",
              "name": "auther",
              "type": "address"
            },
            {
              "internalType": "string",
              "name": "from",
              "type": "string"
            },
            {
              "internalType": "string",
              "name": "title",
              "type": "string"
            },
            {
              "internalType": "string",
              "name": "description",
              "type": "string"
            },
            {
              "internalType": "uint256",
              "name": "bidBond",
              "type": "uint256"
            },
            {
              "internalType": "uint256",
              "name": "prequalificationDeadline",
              "type": "uint256"
            },
            {
              "internalType": "uint256",
              "name": "bidSubmissionDeadline",
              "type": "uint256"
            },
            {
              "internalType": "uint256",
              "name": "contractSignDeadline",
              "type": "uint256"
            },
            {
              "internalType": "uint256",
              "name": "estimatedProjectCost",
              "type": "uint256"
            },
            {
              "internalType": "string",
              "name": "keyword",
              "type": "string"
            },
            {
              "internalType": "uint256",
              "name": "timestamp",
              "type": "uint256"
            }
          ],
          "internalType": "struct TenderApp.Tender",
          "name": "",
          "type": "tuple"
        }
      ],
      "stateMutability": "view",
      "type": "function"
    },
    {
      "inputs": [],
      "name": "getTenders",
      "outputs": [
        {
          "components": [
            {
              "internalType": "uint256",
              "name": "id",
              "type": "uint256"
            },
            {
              "internalType": "address",
              "name": "auther",
              "type": "address"
            },
            {
              "internalType": "string",
              "name": "from",
              "type": "string"
            },
            {
              "internalType": "string",
              "name": "title",
              "type": "string"
            },
            {
              "internalType": "string",
              "name": "description",
              "type": "string"
            },
            {
              "internalType": "uint256",
              "name": "bidBond",
              "type": "uint256"
            },
            {
              "internalType": "uint256",
              "name": "prequalificationDeadline",
              "type": "uint256"
            },
            {
              "internalType": "uint256",
              "name": "bidSubmissionDeadline",
              "type": "uint256"
            },
            {
              "internalType": "uint256",
              "name": "contractSignDeadline",
              "type": "uint256"
            },
            {
              "internalType": "uint256",
              "name": "estimatedProjectCost",
              "type": "uint256"
            },
            {
              "internalType": "string",
              "name": "keyword",
              "type": "string"
            },
            {
              "internalType": "uint256",
              "name": "timestamp",
              "type": "uint256"
            }
          ],
          "internalType": "struct TenderApp.Tender[10]",
          "name": "",
          "type": "tuple[10]"
        }
      ],
      "stateMutability": "view",
      "type": "function"
    },
    {
      "inputs": [],
      "name": "getTendersByApplicant",
      "outputs": [
        {
          "components": [
            {
              "internalType": "uint256",
              "name": "id",
              "type": "uint256"
            },
            {
              "internalType": "address",
              "name": "auther",
              "type": "address"
            },
            {
              "internalType": "string",
              "name": "from",
              "type": "string"
            },
            {
              "internalType": "string",
              "name": "title",
              "type": "string"
            },
            {
              "internalType": "string",
              "name": "description",
              "type": "string"
            },
            {
              "internalType": "uint256",
              "name": "bidBond",
              "type": "uint256"
            },
            {
              "internalType": "uint256",
              "name": "prequalificationDeadline",
              "type": "uint256"
            },
            {
              "internalType": "uint256",
              "name": "bidSubmissionDeadline",
              "type": "uint256"
            },
            {
              "internalType": "uint256",
              "name": "contractSignDeadline",
              "type": "uint256"
            },
            {
              "internalType": "uint256",
              "name": "estimatedProjectCost",
              "type": "uint256"
            },
            {
              "internalType": "string",
              "name": "keyword",
              "type": "string"
            },
            {
              "internalType": "uint256",
              "name": "timestamp",
              "type": "uint256"
            }
          ],
          "internalType": "struct TenderApp.Tender[]",
          "name": "",
          "type": "tuple[]"
        }
      ],
      "stateMutability": "view",
      "type": "function"
    },
    {
      "inputs": [],
      "name": "getTendersByAuthor",
      "outputs": [
        {
          "components": [
            {
              "internalType": "uint256",
              "name": "id",
              "type": "uint256"
            },
            {
              "internalType": "address",
              "name": "auther",
              "type": "address"
            },
            {
              "internalType": "string",
              "name": "from",
              "type": "string"
            },
            {
              "internalType": "string",
              "name": "title",
              "type": "string"
            },
            {
              "internalType": "string",
              "name": "description",
              "type": "string"
            },
            {
              "internalType": "uint256",
              "name": "bidBond",
              "type": "uint256"
            },
            {
              "internalType": "uint256",
              "name": "prequalificationDeadline",
              "type": "uint256"
            },
            {
              "internalType": "uint256",
              "name": "bidSubmissionDeadline",
              "type": "uint256"
            },
            {
              "internalType": "uint256",
              "name": "contractSignDeadline",
              "type": "uint256"
            },
            {
              "internalType": "uint256",
              "name": "estimatedProjectCost",
              "type": "uint256"
            },
            {
              "internalType": "string",
              "name": "keyword",
              "type": "string"
            },
            {
              "internalType": "uint256",
              "name": "timestamp",
              "type": "uint256"
            }
          ],
          "internalType": "struct TenderApp.Tender[]",
          "name": "",
          "type": "tuple[]"
        }
      ],
      "stateMutability": "view",
      "type": "function"
    },
    {
      "inputs": [
        {
          "internalType": "string",
          "name": "query",
          "type": "string"
        }
      ],
      "name": "searchTenders",
      "outputs": [
        {
          "components": [
            {
              "internalType": "uint256",
              "name": "id",
              "type": "uint256"
            },
            {
              "internalType": "address",
              "name": "auther",
              "type": "address"
            },
            {
              "internalType": "string",
              "name": "from",
              "type": "string"
            },
            {
              "internalType": "string",
              "name": "title",
              "type": "string"
            },
            {
              "internalType": "string",
              "name": "description",
              "type": "string"
            },
            {
              "internalType": "uint256",
              "name": "bidBond",
              "type": "uint256"
            },
            {
              "internalType": "uint256",
              "name": "prequalificationDeadline",
              "type": "uint256"
            },
            {
              "internalType": "uint256",
              "name": "bidSubmissionDeadline",
              "type": "uint256"
            },
            {
              "internalType": "uint256",
              "name": "contractSignDeadline",
              "type": "uint256"
            },
            {
              "internalType": "uint256",
              "name": "estimatedProjectCost",
              "type": "uint256"
            },
            {
              "internalType": "string",
              "name": "keyword",
              "type": "string"
            },
            {
              "internalType": "uint256",
              "name": "timestamp",
              "type": "uint256"
            }
          ],
          "internalType": "struct TenderApp.Tender[]",
          "name": "",
          "type": "tuple[]"
        }
      ],
      "stateMutability": "view",
      "type": "function"
    }
  ],
  "bytecode": "0x608060405234801561001057600080fd5b506000600281905550613026806100286000396000f3fe60806040526004361061007b5760003560e01c8063a5ea7b251161004e578063a5ea7b2514610150578063e7ddf85e14610179578063ed39675f146101a4578063eee1f290146101e15761007b565b806303a8b4881461008057806312d0ec80146100bd5780636b4548d5146100e857806384663d9d14610125575b600080fd5b34801561008c57600080fd5b506100a760048036038101906100a29190611f61565b6101fd565b6040516100b491906121b4565b60405180910390f35b3480156100c957600080fd5b506100d2610509565b6040516100df91906123a5565b60405180910390f35b3480156100f457600080fd5b5061010f600480360381019061010a91906124fc565b610907565b60405161011c91906125f3565b60405180910390f35b34801561013157600080fd5b5061013a610d42565b60405161014791906125f3565b60405180910390f35b34801561015c57600080fd5b5061017760048036038101906101729190612615565b6111a7565b005b34801561018557600080fd5b5061018e611373565b60405161019b91906125f3565b60405180910390f35b3480156101b057600080fd5b506101cb60048036038101906101c69190611f61565b611776565b6040516101d89190612868565b60405180910390f35b6101fb60048036038101906101f6919061288a565b611ade565b005b6060600060018054905067ffffffffffffffff8111156102205761021f6123d1565b5b60405190808252806020026020018201604052801561025957816020015b610246611e2d565b81526020019060019003908161023e5790505b5090506000805b6001805490508110156104fb5760006001828154811061028357610282612945565b5b90600052602060002090600502016040518060a0016040529081600082015481526020016001820160009054906101000a900473ffffffffffffffffffffffffffffffffffffffff1673ffffffffffffffffffffffffffffffffffffffff1673ffffffffffffffffffffffffffffffffffffffff16815260200160028201805461030c906129a3565b80601f0160208091040260200160405190810160405280929190818152602001828054610338906129a3565b80156103855780601f1061035a57610100808354040283529160200191610385565b820191906000526020600020905b81548152906001019060200180831161036857829003601f168201915b5050505050815260200160038201805461039e906129a3565b80601f01602080910402602001604051908101604052809291908181526020018280546103ca906129a3565b80156104175780601f106103ec57610100808354040283529160200191610417565b820191906000526020600020905b8154815290600101906020018083116103fa57829003601f168201915b50505050508152602001600482018054610430906129a3565b80601f016020809104026020016040519081016040528092919081815260200182805461045c906129a3565b80156104a95780601f1061047e576101008083540402835291602001916104a9565b820191906000526020600020905b81548152906001019060200180831161048c57829003601f168201915b5050505050815250509050858160000151036104ed57808484815181106104d3576104d2612945565b5b602002602001018190525082806104e990612a03565b9350505b508080600101915050610260565b508082528192505050919050565b610511611e72565b6000808054905011610558576040517f08c379a000000000000000000000000000000000000000000000000000000000815260040161054f90612aa8565b60405180910390fd5b610560611e72565b6000600a60008054905011610576576000610589565b600a6000805490506105889190612ac8565b5b905060005b600a8110156108fe5760008054905081836105a99190612afc565b10156108ec57600081836105bd9190612afc565b815481106105ce576105cd612945565b5b90600052602060002090600c020160405180610180016040529081600082015481526020016001820160009054906101000a900473ffffffffffffffffffffffffffffffffffffffff1673ffffffffffffffffffffffffffffffffffffffff1673ffffffffffffffffffffffffffffffffffffffff168152602001600282018054610658906129a3565b80601f0160208091040260200160405190810160405280929190818152602001828054610684906129a3565b80156106d15780601f106106a6576101008083540402835291602001916106d1565b820191906000526020600020905b8154815290600101906020018083116106b457829003601f168201915b505050505081526020016003820180546106ea906129a3565b80601f0160208091040260200160405190810160405280929190818152602001828054610716906129a3565b80156107635780601f1061073857610100808354040283529160200191610763565b820191906000526020600020905b81548152906001019060200180831161074657829003601f168201915b5050505050815260200160048201805461077c906129a3565b80601f01602080910402602001604051908101604052809291908181526020018280546107a8906129a3565b80156107f55780601f106107ca576101008083540402835291602001916107f5565b820191906000526020600020905b8154815290600101906020018083116107d857829003601f168201915b505050505081526020016005820154815260200160068201548152602001600782015481526020016008820154815260200160098201548152602001600a82018054610840906129a3565b80601f016020809104026020016040519081016040528092919081815260200182805461086c906129a3565b80156108b95780601f1061088e576101008083540402835291602001916108b9565b820191906000526020600020905b81548152906001019060200180831161089c57829003601f168201915b50505050508152602001600b820154815250508382600a81106108df576108de612945565b5b60200201819052506108f1565b6108fe565b808060010191505061058e565b50819250505090565b6060600082511161094d576040517f08c379a000000000000000000000000000000000000000000000000000000000815260040161094490612b7c565b60405180910390fd5b6000808054905067ffffffffffffffff81111561096d5761096c6123d1565b5b6040519080825280602002602001820160405280156109a657816020015b610993611ea0565b81526020019060019003908161098b5790505b5090506000805b600080549050811015610d345760008082815481106109cf576109ce612945565b5b90600052602060002090600c020160405180610180016040529081600082015481526020016001820160009054906101000a900473ffffffffffffffffffffffffffffffffffffffff1673ffffffffffffffffffffffffffffffffffffffff1673ffffffffffffffffffffffffffffffffffffffff168152602001600282018054610a59906129a3565b80601f0160208091040260200160405190810160405280929190818152602001828054610a85906129a3565b8015610ad25780601f10610aa757610100808354040283529160200191610ad2565b820191906000526020600020905b815481529060010190602001808311610ab557829003601f168201915b50505050508152602001600382018054610aeb906129a3565b80601f0160208091040260200160405190810160405280929190818152602001828054610b17906129a3565b8015610b645780601f10610b3957610100808354040283529160200191610b64565b820191906000526020600020905b815481529060010190602001808311610b4757829003601f168201915b50505050508152602001600482018054610b7d906129a3565b80601f0160208091040260200160405190810160405280929190818152602001828054610ba9906129a3565b8015610bf65780601f10610bcb57610100808354040283529160200191610bf6565b820191906000526020600020905b815481529060010190602001808311610bd957829003601f168201915b505050505081526020016005820154815260200160068201548152602001600782015481526020016008820154815260200160098201548152602001600a82018054610c41906129a3565b80601f0160208091040260200160405190810160405280929190818152602001828054610c6d906129a3565b8015610cba5780601f10610c8f57610100808354040283529160200191610cba565b820191906000526020600020905b815481529060010190602001808311610c9d57829003601f168201915b50505050508152602001600b820154815250509050610cdd816060015187611d47565b80610cf35750610cf281610140015187611d47565b5b15610d265780848481518110610d0c57610d0b612945565b5b60200260200101819052508280610d2290612a03565b9350505b5080806001019150506109ad565b508082528192505050919050565b6060600060018054905067ffffffffffffffff811115610d6557610d646123d1565b5b604051908082528060200260200182016040528015610d9e57816020015b610d8b611ea0565b815260200190600190039081610d835790505b5090506000805b60018054905081101561119b573373ffffffffffffffffffffffffffffffffffffffff1660018281548110610ddd57610ddc612945565b5b906000526020600020906005020160010160009054906101000a900473ffffffffffffffffffffffffffffffffffffffff1673ffffffffffffffffffffffffffffffffffffffff160361118e57600060018281548110610e4057610e3f612945565b5b90600052602060002090600502016000015481548110610e6357610e62612945565b5b90600052602060002090600c020160405180610180016040529081600082015481526020016001820160009054906101000a900473ffffffffffffffffffffffffffffffffffffffff1673ffffffffffffffffffffffffffffffffffffffff1673ffffffffffffffffffffffffffffffffffffffff168152602001600282018054610eed906129a3565b80601f0160208091040260200160405190810160405280929190818152602001828054610f19906129a3565b8015610f665780601f10610f3b57610100808354040283529160200191610f66565b820191906000526020600020905b815481529060010190602001808311610f4957829003601f168201915b50505050508152602001600382018054610f7f906129a3565b80601f0160208091040260200160405190810160405280929190818152602001828054610fab906129a3565b8015610ff85780601f10610fcd57610100808354040283529160200191610ff8565b820191906000526020600020905b815481529060010190602001808311610fdb57829003601f168201915b50505050508152602001600482018054611011906129a3565b80601f016020809104026020016040519081016040528092919081815260200182805461103d906129a3565b801561108a5780601f1061105f5761010080835404028352916020019161108a565b820191906000526020600020905b81548152906001019060200180831161106d57829003601f168201915b505050505081526020016005820154815260200160068201548152602001600782015481526020016008820154815260200160098201548152602001600a820180546110d5906129a3565b80601f0160208091040260200160405190810160405280929190818152602001828054611101906129a3565b801561114e5780601f106111235761010080835404028352916020019161114e565b820191906000526020600020905b81548152906001019060200180831161113157829003601f168201915b50505050508152602001600b8201548152505083838151811061117457611173612945565b5b6020026020010181905250818061118a90612a03565b9250505b8080600101915050610da5565b50808252819250505090565b600060405180610180016040528060025481526020013373ffffffffffffffffffffffffffffffffffffffff1681526020018b81526020018a81526020018981526020018881526020018781526020018681526020018581526020018481526020018381526020014281525090806001815401808255809150506001900390600052602060002090600c02016000909190919091506000820151816000015560208201518160010160006101000a81548173ffffffffffffffffffffffffffffffffffffffff021916908373ffffffffffffffffffffffffffffffffffffffff16021790555060408201518160020190816112a29190612d48565b5060608201518160030190816112b89190612d48565b5060808201518160040190816112ce9190612d48565b5060a0820151816005015560c0820151816006015560e082015181600701556101008201518160080155610120820151816009015561014082015181600a0190816113199190612d48565b5061016082015181600b015550507f5991bd552d448a9d84936cae61a2c481ab36bf3361653f4a198279fa2373c11860405160405180910390a160016002546113629190612afc565b600281905550505050505050505050565b60606000808054905067ffffffffffffffff811115611395576113946123d1565b5b6040519080825280602002602001820160405280156113ce57816020015b6113bb611ea0565b8152602001906001900390816113b35790505b5090506000805b60008054905081101561176a5760008082815481106113f7576113f6612945565b5b90600052602060002090600c020160405180610180016040529081600082015481526020016001820160009054906101000a900473ffffffffffffffffffffffffffffffffffffffff1673ffffffffffffffffffffffffffffffffffffffff1673ffffffffffffffffffffffffffffffffffffffff168152602001600282018054611481906129a3565b80601f01602080910402602001604051908101604052809291908181526020018280546114ad906129a3565b80156114fa5780601f106114cf576101008083540402835291602001916114fa565b820191906000526020600020905b8154815290600101906020018083116114dd57829003601f168201915b50505050508152602001600382018054611513906129a3565b80601f016020809104026020016040519081016040528092919081815260200182805461153f906129a3565b801561158c5780601f106115615761010080835404028352916020019161158c565b820191906000526020600020905b81548152906001019060200180831161156f57829003601f168201915b505050505081526020016004820180546115a5906129a3565b80601f01602080910402602001604051908101604052809291908181526020018280546115d1906129a3565b801561161e5780601f106115f35761010080835404028352916020019161161e565b820191906000526020600020905b81548152906001019060200180831161160157829003601f168201915b505050505081526020016005820154815260200160068201548152602001600782015481526020016008820154815260200160098201548152602001600a82018054611669906129a3565b80601f0160208091040260200160405190810160405280929190818152602001828054611695906129a3565b80156116e25780601f106116b7576101008083540402835291602001916116e2565b820191906000526020600020905b8154815290600101906020018083116116c557829003601f168201915b50505050508152602001600b8201548152505090503373ffffffffffffffffffffffffffffffffffffffff16816020015173ffffffffffffffffffffffffffffffffffffffff160361175c578084848151811061174257611741612945565b5b6020026020010181905250828061175890612a03565b9350505b5080806001019150506113d5565b50808252819250505090565b61177e611ea0565b60008054905082106117c5576040517f08c379a00000000000000000000000000000000000000000000000000000000081526004016117bc90612e66565b60405180910390fd5b600082815481106117d9576117d8612945565b5b90600052602060002090600c020160405180610180016040529081600082015481526020016001820160009054906101000a900473ffffffffffffffffffffffffffffffffffffffff1673ffffffffffffffffffffffffffffffffffffffff1673ffffffffffffffffffffffffffffffffffffffff168152602001600282018054611863906129a3565b80601f016020809104026020016040519081016040528092919081815260200182805461188f906129a3565b80156118dc5780601f106118b1576101008083540402835291602001916118dc565b820191906000526020600020905b8154815290600101906020018083116118bf57829003601f168201915b505050505081526020016003820180546118f5906129a3565b80601f0160208091040260200160405190810160405280929190818152602001828054611921906129a3565b801561196e5780601f106119435761010080835404028352916020019161196e565b820191906000526020600020905b81548152906001019060200180831161195157829003601f168201915b50505050508152602001600482018054611987906129a3565b80601f01602080910402602001604051908101604052809291908181526020018280546119b3906129a3565b8015611a005780601f106119d557610100808354040283529160200191611a00565b820191906000526020600020905b8154815290600101906020018083116119e357829003601f168201915b505050505081526020016005820154815260200160068201548152602001600782015481526020016008820154815260200160098201548152602001600a82018054611a4b906129a3565b80601f0160208091040260200160405190810160405280929190818152602001828054611a77906129a3565b8015611ac45780601f10611a9957610100808354040283529160200191611ac4565b820191906000526020600020905b815481529060010190602001808311611aa757829003601f168201915b50505050508152602001600b820154815250509050919050565b6000805490508410611b25576040517f08c379a0000000000000000000000000000000000000000000000000000000008152600401611b1c90612ed2565b60405180910390fd5b60008481548110611b3957611b38612945565b5b90600052602060002090600c0201600501543414611b8c576040517f08c379a0000000000000000000000000000000000000000000000000000000008152600401611b8390612f3e565b60405180910390fd5b6000808581548110611ba157611ba0612945565b5b90600052602060002090600c020190508060010160009054906101000a900473ffffffffffffffffffffffffffffffffffffffff1673ffffffffffffffffffffffffffffffffffffffff163373ffffffffffffffffffffffffffffffffffffffff1603611c43576040517f08c379a0000000000000000000000000000000000000000000000000000000008152600401611c3a90612fd0565b60405180910390fd5b60016040518060a001604052808781526020013373ffffffffffffffffffffffffffffffffffffffff1681526020018681526020018581526020018481525090806001815401808255809150506001900390600052602060002090600502016000909190919091506000820151816000015560208201518160010160006101000a81548173ffffffffffffffffffffffffffffffffffffffff021916908373ffffffffffffffffffffffffffffffffffffffff1602179055506040820151816002019081611d119190612d48565b506060820151816003019081611d279190612d48565b506080820151816004019081611d3d9190612d48565b5050505050505050565b60008083905060008390506000805b8351811015611e1e57828281518110611d7257611d71612945565b5b602001015160f81c60f81b7effffffffffffffffffffffffffffffffffffffffffffffffffffffffffffff1916848281518110611db257611db1612945565b5b602001015160f81c60f81b7effffffffffffffffffffffffffffffffffffffffffffffffffffffffffffff191603611e0c578180611def90612a03565b92505082518203611e07576001945050505050611e27565b611e11565b600091505b8080600101915050611d56565b50600093505050505b92915050565b6040518060a0016040528060008152602001600073ffffffffffffffffffffffffffffffffffffffff1681526020016060815260200160608152602001606081525090565b604051806101400160405280600a905b611e8a611ea0565b815260200190600190039081611e825790505090565b60405180610180016040528060008152602001600073ffffffffffffffffffffffffffffffffffffffff168152602001606081526020016060815260200160608152602001600081526020016000815260200160008152602001600081526020016000815260200160608152602001600081525090565b6000604051905090565b600080fd5b600080fd5b6000819050919050565b611f3e81611f2b565b8114611f4957600080fd5b50565b600081359050611f5b81611f35565b92915050565b600060208284031215611f7757611f76611f21565b5b6000611f8584828501611f4c565b91505092915050565b600081519050919050565b600082825260208201905092915050565b6000819050602082019050919050565b611fc381611f2b565b82525050565b600073ffffffffffffffffffffffffffffffffffffffff82169050919050565b6000611ff482611fc9565b9050919050565b61200481611fe9565b82525050565b600081519050919050565b600082825260208201905092915050565b60005b83811015612044578082015181840152602081019050612029565b60008484015250505050565b6000601f19601f8301169050919050565b600061206c8261200a565b6120768185612015565b9350612086818560208601612026565b61208f81612050565b840191505092915050565b600060a0830160008301516120b26000860182611fba565b5060208301516120c56020860182611ffb565b50604083015184820360408601526120dd8282612061565b915050606083015184820360608601526120f78282612061565b915050608083015184820360808601526121118282612061565b9150508091505092915050565b600061212a838361209a565b905092915050565b6000602082019050919050565b600061214a82611f8e565b6121548185611f99565b93508360208202850161216685611faa565b8060005b858110156121a25784840389528151612183858261211e565b945061218e83612132565b925060208a0199505060018101905061216a565b50829750879550505050505092915050565b600060208201905081810360008301526121ce818461213f565b905092915050565b6000600a9050919050565b600081905092915050565b6000819050919050565b60006101808301600083015161220f6000860182611fba565b5060208301516122226020860182611ffb565b506040830151848203604086015261223a8282612061565b915050606083015184820360608601526122548282612061565b9150506080830151848203608086015261226e8282612061565b91505060a083015161228360a0860182611fba565b5060c083015161229660c0860182611fba565b5060e08301516122a960e0860182611fba565b506101008301516122be610100860182611fba565b506101208301516122d3610120860182611fba565b506101408301518482036101408601526122ed8282612061565b915050610160830151612304610160860182611fba565b508091505092915050565b600061231b83836121f6565b905092915050565b6000602082019050919050565b600061233b826121d6565b61234581856121e1565b935083602082028501612357856121ec565b8060005b858110156123935784840389528151612374858261230f565b945061237f83612323565b925060208a0199505060018101905061235b565b50829750879550505050505092915050565b600060208201905081810360008301526123bf8184612330565b905092915050565b600080fd5b600080fd5b7f4e487b7100000000000000000000000000000000000000000000000000000000600052604160045260246000fd5b61240982612050565b810181811067ffffffffffffffff82111715612428576124276123d1565b5b80604052505050565b600061243b611f17565b90506124478282612400565b919050565b600067ffffffffffffffff821115612467576124666123d1565b5b61247082612050565b9050602081019050919050565b82818337600083830152505050565b600061249f61249a8461244c565b612431565b9050828152602081018484840111156124bb576124ba6123cc565b5b6124c684828561247d565b509392505050565b600082601f8301126124e3576124e26123c7565b5b81356124f384826020860161248c565b91505092915050565b60006020828403121561251257612511611f21565b5b600082013567ffffffffffffffff8111156125305761252f611f26565b5b61253c848285016124ce565b91505092915050565b600081519050919050565b600082825260208201905092915050565b6000819050602082019050919050565b6000602082019050919050565b600061258982612545565b6125938185612550565b9350836020820285016125a585612561565b8060005b858110156125e157848403895281516125c2858261230f565b94506125cd83612571565b925060208a019950506001810190506125a9565b50829750879550505050505092915050565b6000602082019050818103600083015261260d818461257e565b905092915050565b60008060008060008060008060006101208a8c03121561263857612637611f21565b5b60008a013567ffffffffffffffff81111561265657612655611f26565b5b6126628c828d016124ce565b99505060208a013567ffffffffffffffff81111561268357612682611f26565b5b61268f8c828d016124ce565b98505060408a013567ffffffffffffffff8111156126b0576126af611f26565b5b6126bc8c828d016124ce565b97505060606126cd8c828d01611f4c565b96505060806126de8c828d01611f4c565b95505060a06126ef8c828d01611f4c565b94505060c06127008c828d01611f4c565b93505060e06127118c828d01611f4c565b9250506101008a013567ffffffffffffffff81111561273357612732611f26565b5b61273f8c828d016124ce565b9150509295985092959850929598565b6000610180830160008301516127686000860182611fba565b50602083015161277b6020860182611ffb565b50604083015184820360408601526127938282612061565b915050606083015184820360608601526127ad8282612061565b915050608083015184820360808601526127c78282612061565b91505060a08301516127dc60a0860182611fba565b5060c08301516127ef60c0860182611fba565b5060e083015161280260e0860182611fba565b50610100830151612817610100860182611fba565b5061012083015161282c610120860182611fba565b506101408301518482036101408601526128468282612061565b91505061016083015161285d610160860182611fba565b508091505092915050565b60006020820190508181036000830152612882818461274f565b905092915050565b600080600080608085870312156128a4576128a3611f21565b5b60006128b287828801611f4c565b945050602085013567ffffffffffffffff8111156128d3576128d2611f26565b5b6128df878288016124ce565b935050604085013567ffffffffffffffff811115612900576128ff611f26565b5b61290c878288016124ce565b925050606085013567ffffffffffffffff81111561292d5761292c611f26565b5b612939878288016124ce565b91505092959194509250565b7f4e487b7100000000000000000000000000000000000000000000000000000000600052603260045260246000fd5b7f4e487b7100000000000000000000000000000000000000000000000000000000600052602260045260246000fd5b600060028204905060018216806129bb57607f821691505b6020821081036129ce576129cd612974565b5b50919050565b7f4e487b7100000000000000000000000000000000000000000000000000000000600052601160045260246000fd5b6000612a0e82611f2b565b91507fffffffffffffffffffffffffffffffffffffffffffffffffffffffffffffffff8203612a4057612a3f6129d4565b5b600182019050919050565b600082825260208201905092915050565b7f4e6f2074656e6465727320617661696c61626c65000000000000000000000000600082015250565b6000612a92601483612a4b565b9150612a9d82612a5c565b602082019050919050565b60006020820190508181036000830152612ac181612a85565b9050919050565b6000612ad382611f2b565b9150612ade83611f2b565b9250828203905081811115612af657612af56129d4565b5b92915050565b6000612b0782611f2b565b9150612b1283611f2b565b9250828201905080821115612b2a57612b296129d4565b5b92915050565b7f456d707479207365617263682071756572790000000000000000000000000000600082015250565b6000612b66601283612a4b565b9150612b7182612b30565b602082019050919050565b60006020820190508181036000830152612b9581612b59565b9050919050565b60008190508160005260206000209050919050565b60006020601f8301049050919050565b600082821b905092915050565b600060088302612bfe7fffffffffffffffffffffffffffffffffffffffffffffffffffffffffffffffff82612bc1565b612c088683612bc1565b95508019841693508086168417925050509392505050565b6000819050919050565b6000612c45612c40612c3b84611f2b565b612c20565b611f2b565b9050919050565b6000819050919050565b612c5f83612c2a565b612c73612c6b82612c4c565b848454612bce565b825550505050565b600090565b612c88612c7b565b612c93818484612c56565b505050565b5b81811015612cb757612cac600082612c80565b600181019050612c99565b5050565b601f821115612cfc57612ccd81612b9c565b612cd684612bb1565b81016020851015612ce5578190505b612cf9612cf185612bb1565b830182612c98565b50505b505050565b600082821c905092915050565b6000612d1f60001984600802612d01565b1980831691505092915050565b6000612d388383612d0e565b9150826002028217905092915050565b612d518261200a565b67ffffffffffffffff811115612d6a57612d696123d1565b5b612d7482546129a3565b612d7f828285612cbb565b600060209050601f831160018114612db25760008415612da0578287015190505b612daa8582612d2c565b865550612e12565b601f198416612dc086612b9c565b60005b82811015612de857848901518255600182019150602085019450602081019050612dc3565b86831015612e055784890151612e01601f891682612d0e565b8355505b6001600288020188555050505b505050505050565b7f496e76616c69642074656e646572204944000000000000000000000000000000600082015250565b6000612e50601183612a4b565b9150612e5b82612e1a565b602082019050919050565b60006020820190508181036000830152612e7f81612e43565b9050919050565b7f496e76616c69642074656e64657220696e646578000000000000000000000000600082015250565b6000612ebc601483612a4b565b9150612ec782612e86565b602082019050919050565b60006020820190508181036000830152612eeb81612eaf565b9050919050565b7f496e76616c69642062696420626f6e6420616d6f756e74000000000000000000600082015250565b6000612f28601783612a4b565b9150612f3382612ef2565b602082019050919050565b60006020820190508181036000830152612f5781612f1b565b9050919050565b7f4170706c6963616e74732063616e6e6f74206265207468652074656e6465722060008201527f617574686f720000000000000000000000000000000000000000000000000000602082015250565b6000612fba602683612a4b565b9150612fc582612f5e565b604082019050919050565b60006020820190508181036000830152612fe981612fad565b905091905056fea2646970667358221220cc6e1f92a10894a2e299b4a9a1ab66c2c457ffa407dce5658b1d0fd35345396964736f6c63430008180033",
  "linkReferences": {},
  "deployedLinkReferences": {}
}