{
  "_format": "hh-sol-artifact-1",
  "contractName": "TenderApp",
  "sourceName": "contracts/TenderApp.sol",
  "abi": [
    {
      "inputs": [],
      "stateMutability": "nonpayable",
      "type": "constructor"
    },
    {
      "anonymous": false,
      "inputs": [],
      "name": "Announce",
      "type": "event"
    },
    {
      "inputs": [
        {
          "internalType": "uint256",
          "name": "tenderIndex",
          "type": "uint256"
        },
        {
          "internalType": "string",
          "name": "form",
          "type": "string"
        },
        {
          "internalType": "string",
          "name": "title",
          "type": "string"
        },
        {
          "internalType": "string",
          "name": "description",
          "type": "string"
        }
      ],
      "name": "applyToTender",
      "outputs": [],
      "stateMutability": "nonpayable",
      "type": "function"
    },
    {
      "inputs": [
        {
          "internalType": "uint256",
          "name": "applicantId",
          "type": "uint256"
        },
        {
          "internalType": "uint256[53]",
          "name": "answers",
          "type": "uint256[53]"
        }
      ],
      "name": "completeApplication",
      "outputs": [],
      "stateMutability": "nonpayable",
      "type": "function"
    },
    {
      "inputs": [
        {
          "internalType": "string",
          "name": "from",
          "type": "string"
        },
        {
          "internalType": "string",
          "name": "title",
          "type": "string"
        },
        {
          "internalType": "string",
          "name": "description",
          "type": "string"
        },
        {
          "internalType": "uint256",
          "name": "bidBond",
          "type": "uint256"
        },
        {
          "internalType": "uint256",
          "name": "prequalificationDeadline",
          "type": "uint256"
        },
        {
          "internalType": "uint256",
          "name": "bidSubmissionDeadline",
          "type": "uint256"
        },
        {
          "internalType": "uint256",
          "name": "contractSignDeadline",
          "type": "uint256"
        },
        {
          "internalType": "uint256",
          "name": "estimatedProjectCost",
          "type": "uint256"
        },
        {
          "internalType": "string",
          "name": "keyword",
          "type": "string"
        }
      ],
      "name": "createTender",
      "outputs": [],
      "stateMutability": "nonpayable",
      "type": "function"
    },
    {
      "inputs": [],
      "name": "getApplicantsByAuther",
      "outputs": [
        {
          "components": [
            {
              "internalType": "uint256",
              "name": "id",
              "type": "uint256"
            },
            {
              "internalType": "uint256",
              "name": "tenderId",
              "type": "uint256"
            },
            {
              "internalType": "address",
              "name": "applicant",
              "type": "address"
            },
            {
              "internalType": "string",
              "name": "form",
              "type": "string"
            },
            {
              "internalType": "string",
              "name": "title",
              "type": "string"
            },
            {
              "internalType": "string",
              "name": "description",
              "type": "string"
            },
            {
              "internalType": "bool",
              "name": "isCompleted",
              "type": "bool"
            },
            {
              "internalType": "uint256",
              "name": "totalScore",
              "type": "uint256"
            }
          ],
          "internalType": "struct TenderApp.Applicants[]",
          "name": "",
          "type": "tuple[]"
        }
      ],
      "stateMutability": "view",
      "type": "function"
    },
    {
      "inputs": [
        {
          "internalType": "uint256",
          "name": "tenderId",
          "type": "uint256"
        }
      ],
      "name": "getApplicantsByTender",
      "outputs": [
        {
          "components": [
            {
              "internalType": "uint256",
              "name": "id",
              "type": "uint256"
            },
            {
              "internalType": "uint256",
              "name": "tenderId",
              "type": "uint256"
            },
            {
              "internalType": "address",
              "name": "applicant",
              "type": "address"
            },
            {
              "internalType": "string",
              "name": "form",
              "type": "string"
            },
            {
              "internalType": "string",
              "name": "title",
              "type": "string"
            },
            {
              "internalType": "string",
              "name": "description",
              "type": "string"
            },
            {
              "internalType": "bool",
              "name": "isCompleted",
              "type": "bool"
            },
            {
              "internalType": "uint256",
              "name": "totalScore",
              "type": "uint256"
            }
          ],
          "internalType": "struct TenderApp.Applicants[]",
          "name": "",
          "type": "tuple[]"
        }
      ],
      "stateMutability": "view",
      "type": "function"
    },
    {
      "inputs": [
        {
          "internalType": "uint256",
          "name": "id",
          "type": "uint256"
        }
      ],
      "name": "getTenderById",
      "outputs": [
        {
          "components": [
            {
              "internalType": "uint256",
              "name": "id",
              "type": "uint256"
            },
            {
              "internalType": "address",
              "name": "auther",
              "type": "address"
            },
            {
              "internalType": "string",
              "name": "from",
              "type": "string"
            },
            {
              "internalType": "string",
              "name": "title",
              "type": "string"
            },
            {
              "internalType": "string",
              "name": "description",
              "type": "string"
            },
            {
              "internalType": "uint256",
              "name": "bidBond",
              "type": "uint256"
            },
            {
              "internalType": "uint256",
              "name": "prequalificationDeadline",
              "type": "uint256"
            },
            {
              "internalType": "uint256",
              "name": "bidSubmissionDeadline",
              "type": "uint256"
            },
            {
              "internalType": "uint256",
              "name": "contractSignDeadline",
              "type": "uint256"
            },
            {
              "internalType": "uint256",
              "name": "estimatedProjectCost",
              "type": "uint256"
            },
            {
              "internalType": "string",
              "name": "keyword",
              "type": "string"
            },
            {
              "internalType": "uint256",
              "name": "timestamp",
              "type": "uint256"
            }
          ],
          "internalType": "struct TenderApp.Tender",
          "name": "",
          "type": "tuple"
        }
      ],
      "stateMutability": "view",
      "type": "function"
    },
    {
      "inputs": [],
      "name": "getTenders",
      "outputs": [
        {
          "components": [
            {
              "internalType": "uint256",
              "name": "id",
              "type": "uint256"
            },
            {
              "internalType": "address",
              "name": "auther",
              "type": "address"
            },
            {
              "internalType": "string",
              "name": "from",
              "type": "string"
            },
            {
              "internalType": "string",
              "name": "title",
              "type": "string"
            },
            {
              "internalType": "string",
              "name": "description",
              "type": "string"
            },
            {
              "internalType": "uint256",
              "name": "bidBond",
              "type": "uint256"
            },
            {
              "internalType": "uint256",
              "name": "prequalificationDeadline",
              "type": "uint256"
            },
            {
              "internalType": "uint256",
              "name": "bidSubmissionDeadline",
              "type": "uint256"
            },
            {
              "internalType": "uint256",
              "name": "contractSignDeadline",
              "type": "uint256"
            },
            {
              "internalType": "uint256",
              "name": "estimatedProjectCost",
              "type": "uint256"
            },
            {
              "internalType": "string",
              "name": "keyword",
              "type": "string"
            },
            {
              "internalType": "uint256",
              "name": "timestamp",
              "type": "uint256"
            }
          ],
          "internalType": "struct TenderApp.Tender[10]",
          "name": "",
          "type": "tuple[10]"
        }
      ],
      "stateMutability": "view",
      "type": "function"
    },
    {
      "inputs": [],
      "name": "getTendersByApplicant",
      "outputs": [
        {
          "components": [
            {
              "internalType": "uint256",
              "name": "id",
              "type": "uint256"
            },
            {
              "internalType": "address",
              "name": "auther",
              "type": "address"
            },
            {
              "internalType": "string",
              "name": "from",
              "type": "string"
            },
            {
              "internalType": "string",
              "name": "title",
              "type": "string"
            },
            {
              "internalType": "string",
              "name": "description",
              "type": "string"
            },
            {
              "internalType": "uint256",
              "name": "bidBond",
              "type": "uint256"
            },
            {
              "internalType": "uint256",
              "name": "prequalificationDeadline",
              "type": "uint256"
            },
            {
              "internalType": "uint256",
              "name": "bidSubmissionDeadline",
              "type": "uint256"
            },
            {
              "internalType": "uint256",
              "name": "contractSignDeadline",
              "type": "uint256"
            },
            {
              "internalType": "uint256",
              "name": "estimatedProjectCost",
              "type": "uint256"
            },
            {
              "internalType": "string",
              "name": "keyword",
              "type": "string"
            },
            {
              "internalType": "uint256",
              "name": "timestamp",
              "type": "uint256"
            }
          ],
          "internalType": "struct TenderApp.Tender[]",
          "name": "",
          "type": "tuple[]"
        }
      ],
      "stateMutability": "view",
      "type": "function"
    },
    {
      "inputs": [],
      "name": "getTendersByAuthor",
      "outputs": [
        {
          "components": [
            {
              "internalType": "uint256",
              "name": "id",
              "type": "uint256"
            },
            {
              "internalType": "address",
              "name": "auther",
              "type": "address"
            },
            {
              "internalType": "string",
              "name": "from",
              "type": "string"
            },
            {
              "internalType": "string",
              "name": "title",
              "type": "string"
            },
            {
              "internalType": "string",
              "name": "description",
              "type": "string"
            },
            {
              "internalType": "uint256",
              "name": "bidBond",
              "type": "uint256"
            },
            {
              "internalType": "uint256",
              "name": "prequalificationDeadline",
              "type": "uint256"
            },
            {
              "internalType": "uint256",
              "name": "bidSubmissionDeadline",
              "type": "uint256"
            },
            {
              "internalType": "uint256",
              "name": "contractSignDeadline",
              "type": "uint256"
            },
            {
              "internalType": "uint256",
              "name": "estimatedProjectCost",
              "type": "uint256"
            },
            {
              "internalType": "string",
              "name": "keyword",
              "type": "string"
            },
            {
              "internalType": "uint256",
              "name": "timestamp",
              "type": "uint256"
            }
          ],
          "internalType": "struct TenderApp.Tender[]",
          "name": "",
          "type": "tuple[]"
        }
      ],
      "stateMutability": "view",
      "type": "function"
    },
    {
      "inputs": [
        {
          "internalType": "string",
          "name": "query",
          "type": "string"
        }
      ],
      "name": "searchTenders",
      "outputs": [
        {
          "components": [
            {
              "internalType": "uint256",
              "name": "id",
              "type": "uint256"
            },
            {
              "internalType": "address",
              "name": "auther",
              "type": "address"
            },
            {
              "internalType": "string",
              "name": "from",
              "type": "string"
            },
            {
              "internalType": "string",
              "name": "title",
              "type": "string"
            },
            {
              "internalType": "string",
              "name": "description",
              "type": "string"
            },
            {
              "internalType": "uint256",
              "name": "bidBond",
              "type": "uint256"
            },
            {
              "internalType": "uint256",
              "name": "prequalificationDeadline",
              "type": "uint256"
            },
            {
              "internalType": "uint256",
              "name": "bidSubmissionDeadline",
              "type": "uint256"
            },
            {
              "internalType": "uint256",
              "name": "contractSignDeadline",
              "type": "uint256"
            },
            {
              "internalType": "uint256",
              "name": "estimatedProjectCost",
              "type": "uint256"
            },
            {
              "internalType": "string",
              "name": "keyword",
              "type": "string"
            },
            {
              "internalType": "uint256",
              "name": "timestamp",
              "type": "uint256"
            }
          ],
          "internalType": "struct TenderApp.Tender[]",
          "name": "",
          "type": "tuple[]"
        }
      ],
      "stateMutability": "view",
      "type": "function"
    }
  ],
  "bytecode": "0x608060405234801561001057600080fd5b5060006002819055506000600381905550613a1a806100306000396000f3fe608060405234801561001057600080fd5b506004361061009e5760003560e01c806384663d9d1161006657806384663d9d1461015b578063a5ea7b2514610179578063e7ddf85e14610195578063ed39675f146101b3578063eee1f290146101e35761009e565b806303a8b488146100a357806312d0ec80146100d35780631cef87f3146100f15780636b4548d51461010d5780636ca0ff291461013d575b600080fd5b6100bd60048036038101906100b89190612767565b6101ff565b6040516100ca9190612a0f565b60405180910390f35b6100db61053b565b6040516100e89190612c00565b60405180910390f35b61010b60048036038101906101069190612d58565b610939565b005b61012760048036038101906101229190612e4e565b610b9c565b6040516101349190612f45565b60405180910390f35b610145610fd7565b6040516101529190612a0f565b60405180910390f35b610163611378565b6040516101709190612f45565b60405180910390f35b610193600480360381019061018e9190612f67565b6117dd565b005b61019d6119a9565b6040516101aa9190612f45565b60405180910390f35b6101cd60048036038101906101c89190612767565b611dac565b6040516101da91906131ba565b60405180910390f35b6101fd60048036038101906101f891906131dc565b612114565b005b6060600060018054905067ffffffffffffffff81111561022257610221612c27565b5b60405190808252806020026020018201604052801561025b57816020015b61024861261b565b8152602001906001900390816102405790505b5090506000805b60018054905081101561052d5760006001828154811061028557610284613297565b5b90600052602060002090600802016040518061010001604052908160008201548152602001600182015481526020016002820160009054906101000a900473ffffffffffffffffffffffffffffffffffffffff1673ffffffffffffffffffffffffffffffffffffffff1673ffffffffffffffffffffffffffffffffffffffff168152602001600382018054610319906132f5565b80601f0160208091040260200160405190810160405280929190818152602001828054610345906132f5565b80156103925780601f1061036757610100808354040283529160200191610392565b820191906000526020600020905b81548152906001019060200180831161037557829003601f168201915b505050505081526020016004820180546103ab906132f5565b80601f01602080910402602001604051908101604052809291908181526020018280546103d7906132f5565b80156104245780601f106103f957610100808354040283529160200191610424565b820191906000526020600020905b81548152906001019060200180831161040757829003601f168201915b5050505050815260200160058201805461043d906132f5565b80601f0160208091040260200160405190810160405280929190818152602001828054610469906132f5565b80156104b65780601f1061048b576101008083540402835291602001916104b6565b820191906000526020600020905b81548152906001019060200180831161049957829003601f168201915b505050505081526020016006820160009054906101000a900460ff1615151515815260200160078201548152505090508581602001510361051f578084848151811061050557610504613297565b5b6020026020010181905250828061051b90613355565b9350505b508080600101915050610262565b508082528192505050919050565b610543612678565b600080805490501161058a576040517f08c379a0000000000000000000000000000000000000000000000000000000008152600401610581906133fa565b60405180910390fd5b610592612678565b6000600a600080549050116105a85760006105bb565b600a6000805490506105ba919061341a565b5b905060005b600a8110156109305760008054905081836105db919061344e565b101561091e57600081836105ef919061344e565b81548110610600576105ff613297565b5b90600052602060002090600c020160405180610180016040529081600082015481526020016001820160009054906101000a900473ffffffffffffffffffffffffffffffffffffffff1673ffffffffffffffffffffffffffffffffffffffff1673ffffffffffffffffffffffffffffffffffffffff16815260200160028201805461068a906132f5565b80601f01602080910402602001604051908101604052809291908181526020018280546106b6906132f5565b80156107035780601f106106d857610100808354040283529160200191610703565b820191906000526020600020905b8154815290600101906020018083116106e657829003601f168201915b5050505050815260200160038201805461071c906132f5565b80601f0160208091040260200160405190810160405280929190818152602001828054610748906132f5565b80156107955780601f1061076a57610100808354040283529160200191610795565b820191906000526020600020905b81548152906001019060200180831161077857829003601f168201915b505050505081526020016004820180546107ae906132f5565b80601f01602080910402602001604051908101604052809291908181526020018280546107da906132f5565b80156108275780601f106107fc57610100808354040283529160200191610827565b820191906000526020600020905b81548152906001019060200180831161080a57829003601f168201915b505050505081526020016005820154815260200160068201548152602001600782015481526020016008820154815260200160098201548152602001600a82018054610872906132f5565b80601f016020809104026020016040519081016040528092919081815260200182805461089e906132f5565b80156108eb5780601f106108c0576101008083540402835291602001916108eb565b820191906000526020600020905b8154815290600101906020018083116108ce57829003601f168201915b50505050508152602001600b820154815250508382600a811061091157610910613297565b5b6020020181905250610923565b610930565b80806001019150506105c0565b50819250505090565b60008060005b600180549050811015610b5557846001828154811061096157610960613297565b5b9060005260206000209060080201600001541480156109f057503373ffffffffffffffffffffffffffffffffffffffff16600182815481106109a6576109a5613297565b5b906000526020600020906008020160020160009054906101000a900473ffffffffffffffffffffffffffffffffffffffff1673ffffffffffffffffffffffffffffffffffffffff16145b15610b485760018181548110610a0957610a08613297565b5b906000526020600020906008020160060160009054906101000a900460ff1615610a68576040517f08c379a0000000000000000000000000000000000000000000000000000000008152600401610a5f906134ce565b60405180910390fd5b60005b6035811015610ad7576000610a8b600183610a86919061344e565b6122c0565b9050600a81878460358110610aa357610aa2613297565b5b6020020151610ab291906134ee565b610abc919061355f565b85610ac7919061344e565b9450508080600101915050610a6b565b506001808281548110610aed57610aec613297565b5b906000526020600020906008020160060160006101000a81548160ff0219169083151502179055508260018281548110610b2a57610b29613297565b5b90600052602060002090600802016007018190555060019150610b55565b808060010191505061093f565b5080610b96576040517f08c379a0000000000000000000000000000000000000000000000000000000008152600401610b8d90613602565b60405180910390fd5b50505050565b60606000825111610be2576040517f08c379a0000000000000000000000000000000000000000000000000000000008152600401610bd99061366e565b60405180910390fd5b6000808054905067ffffffffffffffff811115610c0257610c01612c27565b5b604051908082528060200260200182016040528015610c3b57816020015b610c286126a6565b815260200190600190039081610c205790505b5090506000805b600080549050811015610fc9576000808281548110610c6457610c63613297565b5b90600052602060002090600c020160405180610180016040529081600082015481526020016001820160009054906101000a900473ffffffffffffffffffffffffffffffffffffffff1673ffffffffffffffffffffffffffffffffffffffff1673ffffffffffffffffffffffffffffffffffffffff168152602001600282018054610cee906132f5565b80601f0160208091040260200160405190810160405280929190818152602001828054610d1a906132f5565b8015610d675780601f10610d3c57610100808354040283529160200191610d67565b820191906000526020600020905b815481529060010190602001808311610d4a57829003601f168201915b50505050508152602001600382018054610d80906132f5565b80601f0160208091040260200160405190810160405280929190818152602001828054610dac906132f5565b8015610df95780601f10610dce57610100808354040283529160200191610df9565b820191906000526020600020905b815481529060010190602001808311610ddc57829003601f168201915b50505050508152602001600482018054610e12906132f5565b80601f0160208091040260200160405190810160405280929190818152602001828054610e3e906132f5565b8015610e8b5780601f10610e6057610100808354040283529160200191610e8b565b820191906000526020600020905b815481529060010190602001808311610e6e57829003601f168201915b505050505081526020016005820154815260200160068201548152602001600782015481526020016008820154815260200160098201548152602001600a82018054610ed6906132f5565b80601f0160208091040260200160405190810160405280929190818152602001828054610f02906132f5565b8015610f4f5780601f10610f2457610100808354040283529160200191610f4f565b820191906000526020600020905b815481529060010190602001808311610f3257829003601f168201915b50505050508152602001600b820154815250509050610f72816060015187612535565b80610f885750610f8781610140015187612535565b5b15610fbb5780848481518110610fa157610fa0613297565b5b60200260200101819052508280610fb790613355565b9350505b508080600101915050610c42565b508082528192505050919050565b6060600060018054905067ffffffffffffffff811115610ffa57610ff9612c27565b5b60405190808252806020026020018201604052801561103357816020015b61102061261b565b8152602001906001900390816110185790505b5090506000805b60018054905081101561136c573373ffffffffffffffffffffffffffffffffffffffff166001828154811061107257611071613297565b5b906000526020600020906008020160020160009054906101000a900473ffffffffffffffffffffffffffffffffffffffff1673ffffffffffffffffffffffffffffffffffffffff160361135f57600181815481106110d3576110d2613297565b5b90600052602060002090600802016040518061010001604052908160008201548152602001600182015481526020016002820160009054906101000a900473ffffffffffffffffffffffffffffffffffffffff1673ffffffffffffffffffffffffffffffffffffffff1673ffffffffffffffffffffffffffffffffffffffff168152602001600382018054611167906132f5565b80601f0160208091040260200160405190810160405280929190818152602001828054611193906132f5565b80156111e05780601f106111b5576101008083540402835291602001916111e0565b820191906000526020600020905b8154815290600101906020018083116111c357829003601f168201915b505050505081526020016004820180546111f9906132f5565b80601f0160208091040260200160405190810160405280929190818152602001828054611225906132f5565b80156112725780601f1061124757610100808354040283529160200191611272565b820191906000526020600020905b81548152906001019060200180831161125557829003601f168201915b5050505050815260200160058201805461128b906132f5565b80601f01602080910402602001604051908101604052809291908181526020018280546112b7906132f5565b80156113045780601f106112d957610100808354040283529160200191611304565b820191906000526020600020905b8154815290600101906020018083116112e757829003601f168201915b505050505081526020016006820160009054906101000a900460ff1615151515815260200160078201548152505083838151811061134557611344613297565b5b6020026020010181905250818061135b90613355565b9250505b808060010191505061103a565b50808252819250505090565b6060600060018054905067ffffffffffffffff81111561139b5761139a612c27565b5b6040519080825280602002602001820160405280156113d457816020015b6113c16126a6565b8152602001906001900390816113b95790505b5090506000805b6001805490508110156117d1573373ffffffffffffffffffffffffffffffffffffffff166001828154811061141357611412613297565b5b906000526020600020906008020160020160009054906101000a900473ffffffffffffffffffffffffffffffffffffffff1673ffffffffffffffffffffffffffffffffffffffff16036117c45760006001828154811061147657611475613297565b5b9060005260206000209060080201600101548154811061149957611498613297565b5b90600052602060002090600c020160405180610180016040529081600082015481526020016001820160009054906101000a900473ffffffffffffffffffffffffffffffffffffffff1673ffffffffffffffffffffffffffffffffffffffff1673ffffffffffffffffffffffffffffffffffffffff168152602001600282018054611523906132f5565b80601f016020809104026020016040519081016040528092919081815260200182805461154f906132f5565b801561159c5780601f106115715761010080835404028352916020019161159c565b820191906000526020600020905b81548152906001019060200180831161157f57829003601f168201915b505050505081526020016003820180546115b5906132f5565b80601f01602080910402602001604051908101604052809291908181526020018280546115e1906132f5565b801561162e5780601f106116035761010080835404028352916020019161162e565b820191906000526020600020905b81548152906001019060200180831161161157829003601f168201915b50505050508152602001600482018054611647906132f5565b80601f0160208091040260200160405190810160405280929190818152602001828054611673906132f5565b80156116c05780601f10611695576101008083540402835291602001916116c0565b820191906000526020600020905b8154815290600101906020018083116116a357829003601f168201915b505050505081526020016005820154815260200160068201548152602001600782015481526020016008820154815260200160098201548152602001600a8201805461170b906132f5565b80601f0160208091040260200160405190810160405280929190818152602001828054611737906132f5565b80156117845780601f1061175957610100808354040283529160200191611784565b820191906000526020600020905b81548152906001019060200180831161176757829003601f168201915b50505050508152602001600b820154815250508383815181106117aa576117a9613297565b5b602002602001018190525081806117c090613355565b9250505b80806001019150506113db565b50808252819250505090565b600060405180610180016040528060025481526020013373ffffffffffffffffffffffffffffffffffffffff1681526020018b81526020018a81526020018981526020018881526020018781526020018681526020018581526020018481526020018381526020014281525090806001815401808255809150506001900390600052602060002090600c02016000909190919091506000820151816000015560208201518160010160006101000a81548173ffffffffffffffffffffffffffffffffffffffff021916908373ffffffffffffffffffffffffffffffffffffffff16021790555060408201518160020190816118d8919061383a565b5060608201518160030190816118ee919061383a565b506080820151816004019081611904919061383a565b5060a0820151816005015560c0820151816006015560e082015181600701556101008201518160080155610120820151816009015561014082015181600a01908161194f919061383a565b5061016082015181600b015550507f5991bd552d448a9d84936cae61a2c481ab36bf3361653f4a198279fa2373c11860405160405180910390a16001600254611998919061344e565b600281905550505050505050505050565b60606000808054905067ffffffffffffffff8111156119cb576119ca612c27565b5b604051908082528060200260200182016040528015611a0457816020015b6119f16126a6565b8152602001906001900390816119e95790505b5090506000805b600080549050811015611da0576000808281548110611a2d57611a2c613297565b5b90600052602060002090600c020160405180610180016040529081600082015481526020016001820160009054906101000a900473ffffffffffffffffffffffffffffffffffffffff1673ffffffffffffffffffffffffffffffffffffffff1673ffffffffffffffffffffffffffffffffffffffff168152602001600282018054611ab7906132f5565b80601f0160208091040260200160405190810160405280929190818152602001828054611ae3906132f5565b8015611b305780601f10611b0557610100808354040283529160200191611b30565b820191906000526020600020905b815481529060010190602001808311611b1357829003601f168201915b50505050508152602001600382018054611b49906132f5565b80601f0160208091040260200160405190810160405280929190818152602001828054611b75906132f5565b8015611bc25780601f10611b9757610100808354040283529160200191611bc2565b820191906000526020600020905b815481529060010190602001808311611ba557829003601f168201915b50505050508152602001600482018054611bdb906132f5565b80601f0160208091040260200160405190810160405280929190818152602001828054611c07906132f5565b8015611c545780601f10611c2957610100808354040283529160200191611c54565b820191906000526020600020905b815481529060010190602001808311611c3757829003601f168201915b505050505081526020016005820154815260200160068201548152602001600782015481526020016008820154815260200160098201548152602001600a82018054611c9f906132f5565b80601f0160208091040260200160405190810160405280929190818152602001828054611ccb906132f5565b8015611d185780601f10611ced57610100808354040283529160200191611d18565b820191906000526020600020905b815481529060010190602001808311611cfb57829003601f168201915b50505050508152602001600b8201548152505090503373ffffffffffffffffffffffffffffffffffffffff16816020015173ffffffffffffffffffffffffffffffffffffffff1603611d925780848481518110611d7857611d77613297565b5b60200260200101819052508280611d8e90613355565b9350505b508080600101915050611a0b565b50808252819250505090565b611db46126a6565b6000805490508210611dfb576040517f08c379a0000000000000000000000000000000000000000000000000000000008152600401611df290613958565b60405180910390fd5b60008281548110611e0f57611e0e613297565b5b90600052602060002090600c020160405180610180016040529081600082015481526020016001820160009054906101000a900473ffffffffffffffffffffffffffffffffffffffff1673ffffffffffffffffffffffffffffffffffffffff1673ffffffffffffffffffffffffffffffffffffffff168152602001600282018054611e99906132f5565b80601f0160208091040260200160405190810160405280929190818152602001828054611ec5906132f5565b8015611f125780601f10611ee757610100808354040283529160200191611f12565b820191906000526020600020905b815481529060010190602001808311611ef557829003601f168201915b50505050508152602001600382018054611f2b906132f5565b80601f0160208091040260200160405190810160405280929190818152602001828054611f57906132f5565b8015611fa45780601f10611f7957610100808354040283529160200191611fa4565b820191906000526020600020905b815481529060010190602001808311611f8757829003601f168201915b50505050508152602001600482018054611fbd906132f5565b80601f0160208091040260200160405190810160405280929190818152602001828054611fe9906132f5565b80156120365780601f1061200b57610100808354040283529160200191612036565b820191906000526020600020905b81548152906001019060200180831161201957829003601f168201915b505050505081526020016005820154815260200160068201548152602001600782015481526020016008820154815260200160098201548152602001600a82018054612081906132f5565b80601f01602080910402602001604051908101604052809291908181526020018280546120ad906132f5565b80156120fa5780601f106120cf576101008083540402835291602001916120fa565b820191906000526020600020905b8154815290600101906020018083116120dd57829003601f168201915b50505050508152602001600b820154815250509050919050565b600080549050841061215b576040517f08c379a0000000000000000000000000000000000000000000000000000000008152600401612152906139c4565b60405180910390fd5b600160405180610100016040528060035481526020018681526020013373ffffffffffffffffffffffffffffffffffffffff16815260200185815260200184815260200183815260200160001515815260200160008152509080600181540180825580915050600190039060005260206000209060080201600090919091909150600082015181600001556020820151816001015560408201518160020160006101000a81548173ffffffffffffffffffffffffffffffffffffffff021916908373ffffffffffffffffffffffffffffffffffffffff160217905550606082015181600301908161224c919061383a565b506080820151816004019081612262919061383a565b5060a0820151816005019081612278919061383a565b5060c08201518160060160006101000a81548160ff02191690831515021790555060e08201518160070155505060016003546122b4919061344e565b60038190555050505050565b600060018214806122d15750600282145b806122dc5750600382145b806122e75750600482145b806122f25750600582145b806122fd5750600682145b806123085750600782145b806123135750600982145b8061231e5750600a82145b806123295750600b82145b806123345750600c82145b8061233f5750600e82145b8061234a5750600f82145b806123555750601082145b806123605750601182145b8061236b5750601282145b806123765750601382145b806123815750601482145b8061238c5750601582145b806123975750601782145b806123a25750601882145b806123ad5750601982145b806123b85750601a82145b806123c35750601e82145b806123ce5750601f82145b806123d95750602482145b806123e45750602582145b806123ef5750602682145b806123fa5750602782145b806124055750602882145b806124105750602982145b8061241b5750602a82145b1561242957600a9050612530565b6008820361243a5760149050612530565b600d8214806124495750601b82145b806124545750601c82145b8061245f5750602082145b8061246a5750602182145b806124755750602282145b806124805750602382145b1561248e5760059050612530565b601682148061249d5750601d82145b156124ab5760019050612530565b602b8214806124ba5750602c82145b806124c55750602d82145b806124d05750602e82145b806124db5750602f82145b806124e65750603082145b806124f15750603182145b806124fc5750603282145b806125075750603382145b806125125750603482145b8061251d5750603582145b1561252b57600a9050612530565b600090505b919050565b60008083905060008390506000805b835181101561260c578282815181106125605761255f613297565b5b602001015160f81c60f81b7effffffffffffffffffffffffffffffffffffffffffffffffffffffffffffff19168482815181106125a05761259f613297565b5b602001015160f81c60f81b7effffffffffffffffffffffffffffffffffffffffffffffffffffffffffffff1916036125fa5781806125dd90613355565b925050825182036125f5576001945050505050612615565b6125ff565b600091505b8080600101915050612544565b50600093505050505b92915050565b6040518061010001604052806000815260200160008152602001600073ffffffffffffffffffffffffffffffffffffffff168152602001606081526020016060815260200160608152602001600015158152602001600081525090565b604051806101400160405280600a905b6126906126a6565b8152602001906001900390816126885790505090565b60405180610180016040528060008152602001600073ffffffffffffffffffffffffffffffffffffffff168152602001606081526020016060815260200160608152602001600081526020016000815260200160008152602001600081526020016000815260200160608152602001600081525090565b6000604051905090565b600080fd5b600080fd5b6000819050919050565b61274481612731565b811461274f57600080fd5b50565b6000813590506127618161273b565b92915050565b60006020828403121561277d5761277c612727565b5b600061278b84828501612752565b91505092915050565b600081519050919050565b600082825260208201905092915050565b6000819050602082019050919050565b6127c981612731565b82525050565b600073ffffffffffffffffffffffffffffffffffffffff82169050919050565b60006127fa826127cf565b9050919050565b61280a816127ef565b82525050565b600081519050919050565b600082825260208201905092915050565b60005b8381101561284a57808201518184015260208101905061282f565b60008484015250505050565b6000601f19601f8301169050919050565b600061287282612810565b61287c818561281b565b935061288c81856020860161282c565b61289581612856565b840191505092915050565b60008115159050919050565b6128b5816128a0565b82525050565b6000610100830160008301516128d460008601826127c0565b5060208301516128e760208601826127c0565b5060408301516128fa6040860182612801565b50606083015184820360608601526129128282612867565b9150506080830151848203608086015261292c8282612867565b91505060a083015184820360a08601526129468282612867565b91505060c083015161295b60c08601826128ac565b5060e083015161296e60e08601826127c0565b508091505092915050565b600061298583836128bb565b905092915050565b6000602082019050919050565b60006129a582612794565b6129af818561279f565b9350836020820285016129c1856127b0565b8060005b858110156129fd57848403895281516129de8582612979565b94506129e98361298d565b925060208a019950506001810190506129c5565b50829750879550505050505092915050565b60006020820190508181036000830152612a29818461299a565b905092915050565b6000600a9050919050565b600081905092915050565b6000819050919050565b600061018083016000830151612a6a60008601826127c0565b506020830151612a7d6020860182612801565b5060408301518482036040860152612a958282612867565b91505060608301518482036060860152612aaf8282612867565b91505060808301518482036080860152612ac98282612867565b91505060a0830151612ade60a08601826127c0565b5060c0830151612af160c08601826127c0565b5060e0830151612b0460e08601826127c0565b50610100830151612b196101008601826127c0565b50610120830151612b2e6101208601826127c0565b50610140830151848203610140860152612b488282612867565b915050610160830151612b5f6101608601826127c0565b508091505092915050565b6000612b768383612a51565b905092915050565b6000602082019050919050565b6000612b9682612a31565b612ba08185612a3c565b935083602082028501612bb285612a47565b8060005b85811015612bee5784840389528151612bcf8582612b6a565b9450612bda83612b7e565b925060208a01995050600181019050612bb6565b50829750879550505050505092915050565b60006020820190508181036000830152612c1a8184612b8b565b905092915050565b600080fd5b7f4e487b7100000000000000000000000000000000000000000000000000000000600052604160045260246000fd5b612c5f82612856565b810181811067ffffffffffffffff82111715612c7e57612c7d612c27565b5b80604052505050565b6000612c9161271d565b9050612c9d8282612c56565b919050565b600067ffffffffffffffff821115612cbd57612cbc612c27565b5b602082029050919050565b600080fd5b6000612ce0612cdb84612ca2565b612c87565b90508060208402830185811115612cfa57612cf9612cc8565b5b835b81811015612d235780612d0f8882612752565b845260208401935050602081019050612cfc565b5050509392505050565b600082601f830112612d4257612d41612c22565b5b6035612d4f848285612ccd565b91505092915050565b6000806106c08385031215612d7057612d6f612727565b5b6000612d7e85828601612752565b9250506020612d8f85828601612d2d565b9150509250929050565b600080fd5b600067ffffffffffffffff821115612db957612db8612c27565b5b612dc282612856565b9050602081019050919050565b82818337600083830152505050565b6000612df1612dec84612d9e565b612c87565b905082815260208101848484011115612e0d57612e0c612d99565b5b612e18848285612dcf565b509392505050565b600082601f830112612e3557612e34612c22565b5b8135612e45848260208601612dde565b91505092915050565b600060208284031215612e6457612e63612727565b5b600082013567ffffffffffffffff811115612e8257612e8161272c565b5b612e8e84828501612e20565b91505092915050565b600081519050919050565b600082825260208201905092915050565b6000819050602082019050919050565b6000602082019050919050565b6000612edb82612e97565b612ee58185612ea2565b935083602082028501612ef785612eb3565b8060005b85811015612f335784840389528151612f148582612b6a565b9450612f1f83612ec3565b925060208a01995050600181019050612efb565b50829750879550505050505092915050565b60006020820190508181036000830152612f5f8184612ed0565b905092915050565b60008060008060008060008060006101208a8c031215612f8a57612f89612727565b5b60008a013567ffffffffffffffff811115612fa857612fa761272c565b5b612fb48c828d01612e20565b99505060208a013567ffffffffffffffff811115612fd557612fd461272c565b5b612fe18c828d01612e20565b98505060408a013567ffffffffffffffff8111156130025761300161272c565b5b61300e8c828d01612e20565b975050606061301f8c828d01612752565b96505060806130308c828d01612752565b95505060a06130418c828d01612752565b94505060c06130528c828d01612752565b93505060e06130638c828d01612752565b9250506101008a013567ffffffffffffffff8111156130855761308461272c565b5b6130918c828d01612e20565b9150509295985092959850929598565b6000610180830160008301516130ba60008601826127c0565b5060208301516130cd6020860182612801565b50604083015184820360408601526130e58282612867565b915050606083015184820360608601526130ff8282612867565b915050608083015184820360808601526131198282612867565b91505060a083015161312e60a08601826127c0565b5060c083015161314160c08601826127c0565b5060e083015161315460e08601826127c0565b506101008301516131696101008601826127c0565b5061012083015161317e6101208601826127c0565b506101408301518482036101408601526131988282612867565b9150506101608301516131af6101608601826127c0565b508091505092915050565b600060208201905081810360008301526131d481846130a1565b905092915050565b600080600080608085870312156131f6576131f5612727565b5b600061320487828801612752565b945050602085013567ffffffffffffffff8111156132255761322461272c565b5b61323187828801612e20565b935050604085013567ffffffffffffffff8111156132525761325161272c565b5b61325e87828801612e20565b925050606085013567ffffffffffffffff81111561327f5761327e61272c565b5b61328b87828801612e20565b91505092959194509250565b7f4e487b7100000000000000000000000000000000000000000000000000000000600052603260045260246000fd5b7f4e487b7100000000000000000000000000000000000000000000000000000000600052602260045260246000fd5b6000600282049050600182168061330d57607f821691505b6020821081036133205761331f6132c6565b5b50919050565b7f4e487b7100000000000000000000000000000000000000000000000000000000600052601160045260246000fd5b600061336082612731565b91507fffffffffffffffffffffffffffffffffffffffffffffffffffffffffffffffff820361339257613391613326565b5b600182019050919050565b600082825260208201905092915050565b7f4e6f2074656e6465727320617661696c61626c65000000000000000000000000600082015250565b60006133e460148361339d565b91506133ef826133ae565b602082019050919050565b60006020820190508181036000830152613413816133d7565b9050919050565b600061342582612731565b915061343083612731565b925082820390508181111561344857613447613326565b5b92915050565b600061345982612731565b915061346483612731565b925082820190508082111561347c5761347b613326565b5b92915050565b7f4170706c69636174696f6e20616c726561647920636f6d706c65746564000000600082015250565b60006134b8601d8361339d565b91506134c382613482565b602082019050919050565b600060208201905081810360008301526134e7816134ab565b9050919050565b60006134f982612731565b915061350483612731565b925082820261351281612731565b9150828204841483151761352957613528613326565b5b5092915050565b7f4e487b7100000000000000000000000000000000000000000000000000000000600052601260045260246000fd5b600061356a82612731565b915061357583612731565b92508261358557613584613530565b5b828204905092915050565b7f4e6f206170706c69636174696f6e20666f756e6420666f72207468652067697660008201527f656e206170706c6963616e7420494420616e642073656e646572000000000000602082015250565b60006135ec603a8361339d565b91506135f782613590565b604082019050919050565b6000602082019050818103600083015261361b816135df565b9050919050565b7f456d707479207365617263682071756572790000000000000000000000000000600082015250565b600061365860128361339d565b915061366382613622565b602082019050919050565b600060208201905081810360008301526136878161364b565b9050919050565b60008190508160005260206000209050919050565b60006020601f8301049050919050565b600082821b905092915050565b6000600883026136f07fffffffffffffffffffffffffffffffffffffffffffffffffffffffffffffffff826136b3565b6136fa86836136b3565b95508019841693508086168417925050509392505050565b6000819050919050565b600061373761373261372d84612731565b613712565b612731565b9050919050565b6000819050919050565b6137518361371c565b61376561375d8261373e565b8484546136c0565b825550505050565b600090565b61377a61376d565b613785818484613748565b505050565b5b818110156137a95761379e600082613772565b60018101905061378b565b5050565b601f8211156137ee576137bf8161368e565b6137c8846136a3565b810160208510156137d7578190505b6137eb6137e3856136a3565b83018261378a565b50505b505050565b600082821c905092915050565b6000613811600019846008026137f3565b1980831691505092915050565b600061382a8383613800565b9150826002028217905092915050565b61384382612810565b67ffffffffffffffff81111561385c5761385b612c27565b5b61386682546132f5565b6138718282856137ad565b600060209050601f8311600181146138a45760008415613892578287015190505b61389c858261381e565b865550613904565b601f1984166138b28661368e565b60005b828110156138da578489015182556001820191506020850194506020810190506138b5565b868310156138f757848901516138f3601f891682613800565b8355505b6001600288020188555050505b505050505050565b7f496e76616c69642074656e646572204944000000000000000000000000000000600082015250565b600061394260118361339d565b915061394d8261390c565b602082019050919050565b6000602082019050818103600083015261397181613935565b9050919050565b7f496e76616c69642074656e64657220696e646578000000000000000000000000600082015250565b60006139ae60148361339d565b91506139b982613978565b602082019050919050565b600060208201905081810360008301526139dd816139a1565b905091905056fea26469706673582212208c4a1725026fe4f97fffff1038d13eb503f5233d1b85dea9121a1a5c2396475e64736f6c63430008180033",
  "linkReferences": {},
  "deployedLinkReferences": {}
}